S01C000044524F4E492D312E312D53544142494C495A45522E73726563A9
S21440000090114020A10140009D0140009D0140000C
S2144000109D0140009D0140009D0140000000000001
S2144000200000000000000000000000009D014000AD
S2144000309D014000000000009D014000E517400083
S2144000409D0140009D0140009D0140009D014000F3
S2144000509D0140009D0140009D0140004D0940002B
S2144000609D01400000000000651F4000751F4000D5
S214400070000000009D0140009D0140009D014000A1
S214400080851F4000000000009D0140009D0140008B
S2144000909D0140009D0140009D0140009D014000A3
S2144000A09D0140009D01400000000000000000004F
S2144000B000000000C51740009D0140009D01400023
S2144000C09D0140009D0140009D0140009D01400073
S2144000D0000000009D014000000000009D0140001F
S2144000E0D51740009D0140009D0140009D01400005
S2144000F09D0140009D0140009D0140000000000021
S21440010000000000000000009D0140009D014000EE
S2144001109D014000000000000000000000000000BC
S2144001209D0140009D0140009D0140009D01400012
S2144001309D01400000000000000000009D014000BE
S21440014010B5054C237833B9044B13B10448AFF3CC
S21440015000800123237010BD880840200000000066
S21440016074684000084B10B51BB108490848AFF307
S21440017000800848036803B910BD074B002BFBD02E
S214400180BDE81040184700BF000000008C08402023
S214400190746840007468400000000000FEE70000FD
S2144001A008B5104A104B9A4202D0043A0F4903E071
S2144001B00F4B00210F4A06E08B42F9D252F8040F4B
S2144001C043F8040BF8E7934202D243F8041BFAE7DD
S2144001D0094B0A4A23F07F039360094B9847094B23
S2144001E09847FEE77468400000004020840840209E
S2144001F088084020900D40200000400000ED00E0C0
S2144002001D374000D514400070B50546044C0068C4
S214400210A047286823460349BDE87040184700BFFA
S214400220951D4000986440002DE9F041124D064669
S214400230124F1F226D210078B847114C2846A04720
S214400240B6227E213078B8472846A0470D4B7F21FE
S214400250307898472846A04711227E213078B84704
S2144002602846A047307815227E21B84728462346A0
S214400270BDE8F041184700BFA0860100711E40004F
S214400280F5174000411E400070B5051D0446044B5E
S2144002902846984729462068024BBDE870401847D4
S2144002A015184000951D40002DE9F14F16461F4693
S2144002B004464FF060423B4B304639463A4DA847DD
S2144002C020B13A4920683A4B984763E0394D4FF0A1
S2144002D06042394B30463946A8470028F1D10022C3
S2144002E0002330463946A84730B1314B3349206861
S2144002F0984707F100431F460A254FF00008DFF8ED
S214400300E090DFF8E0A0013D4046494600222C4BF5
S214400310D04715F0FF0580468946F4D132463B4625
S214400320284DA847284B0F4606469847274B054674
S214400330DFF8B4B0984702460B4630463946DFF8F9
S214400340ACA0D847DFF8A89006460F462046294678
S2144003500B25D0471E492068154B9847013D15F0A0
S214400360FF0517D00022164B30463946C847194B72
S2144003700F4606469847804601462046D047164BCD
S2144003804046984702460B4630463946D8470646CA
S2144003900F46E3E711492068054B01B0BDE8F04F32
S2144003A0184700BFFFFFEF41993540009A64400070
S2144003B0951D40005D354000FFFFEFC1B264400030
S2144003C000002440152D4000293640008D2F400067
S2144003D09E644000D9354000AD2F400098644000F0
S2144003E00000E03FCD324000112D40008902400021
S2144003F079304000000000002DE9F8431321044600
S214400400414D0078A847064612212078A847DFF8D5
S214400410048140EA06203D4F3D4E00B2C047D4E935
S2144004201423B84736A3D3E90023B047C4E90201F2
S21440043015212078A847814614212078A84740EA0D
S214400440092000B2C047D4E91423B8472CA3D3E907
S2144004500023B047C4E9040117212078A847814605
S21440046016212078A84740EA092000B2C047D4E9C0
S2144004701423B84722A3D3E90023B047C4E90601B2
S2144004800D212078A84781460C212078A84740EACD
S214400490092000B2C047D4E91623B84718A3D3E9C9
S2144004A00023B047C4E908010F212078A8478146B9
S2144004B00E212078A84740EA092000B2C047D4E978
S2144004C01623B8470EA3D3E90023B047C4E90A0170
S2144004D011212078A847814610212078A84740EA75
S2144004E0092000B2C047D4E91623B84704A3D3E98D
S2144004F00023B047C4E90C01BDE8F883AFF30080A1
S21440050000000000C0FFDF40411E40007930400040
S214400510CD324000AD2F400070B50446154D6030DA
S214400520A8472046A8474FF080430022124D41215D
S2144005302078C4E914230322A847104B0022432105
S2144005402078C4E916230322A8470D4B00224121F8
S21440055094F86000C4E92C230822A8470022094BDF
S214400560432194F86000C4E92E232B460122BDE8BF
S2144005707040184729024000711E400000406F40FE
S2144005800000204000408F402DE9F04F00F1B005BC
S21440059085B09B4B04462846DFF878B298472846F5
S2144005A0984DA84704F58870A847974D00224FF00D
S2144005B08043AA46D4E9466730463946A847934D15
S2144005C0A0B989A3D3E90023D4E92E01A8478046E1
S2144005D089463046394686A3D3E90023A8470246D3
S2144005E00B4640464946D84706460F4600224FF03F
S2144005F0804394ED487BC4E914678DED027B51EC53
S214400600170BD047A0B978A3D3E90023D4E930012B
S214400610A84706460F4676A3D3E90023DDE9020144
S214400620A84702460B4630463946D847CDE9020130
S2144006309DED027B00224FF0804384ED167B94EDC7
S2144006404A7B8DED007B51EC170BD047A0B966A3D3
S214400650D3E90023D4E93201A84706460F4664A3EF
S214400660D3E90023DDE90001A84702460B463046A1
S2144006703946D847CDE900019DED007BD4E94C676B
S2144006800022634B3046394684ED187BD047A8B9E4
S21440069055A3D3E90023D4E93401A84780468946C8
S2144006A0304639465B4E52A3D3E90023A84702465C
S2144006B00B4640464946B04706460F460022544B36
S2144006C0C4E91A67D4E94E6730463946D047A8B9D8
S2144006D045A3D3E90023D4E93601A8478046894696
S2144006E0304639464B4E42A3D3E90023A84702463C
S2144006F00B4640464946B04706460F460022444B06
S214400700C4E91C67D4E9506730463946D047A8B993
S21440071035A3D3E90023D4E93801A8478046894663
S214400720304639463B4E32A3D3E90023A84702461B
S2144007300B4640464946B04706460F46DFF8ECA013
S214400740C4E91E67DDE90023DDE90201324EB04709
S21440075029A3D3E90023A847236D80468946009302
S214400760636D03F1004394ED187B0193D4E916239F
S2144007708DED027B10461946A84706460F46DDE932
S214400780022310461946A84702460B4630463946CD
S214400790224ED847224B984702460B46DDE90001D9
S2144007A0B047204B984714A3D3E90023A8470646F2
S2144007B00F46404649461C4DD04701462046A8476E
S2144007C039463046D047014604F12800A847C4E9D8
S2144007D02089C4E92267C4E92489C4E9266705B0AC
S2144007E0BDE8F08FAFF300809A9999999999E93FBF
S2144007F09A9999999999C93FF8C1631ADCA54C40D2
S21440080019054000F9034000993540007930400012
S21440081000406F40152D400035294000CD32400045
S21440082039294000F1254000331940006936400020
S2144008302DE9F04196B03D4C05463D4902A83D4F56
S214400840A0473B4907A82E46A04739490CA8A047D1
S214400850374911A8A0472B7800248DF804308DF82E
S2144008600540002B49D0642C0ED0337801A902A84D
S2144008708DF80430B84716F8013F621C202B01D093
S2144008801446EEE702342B5D2F19DFF8A880002BC4
S21440089033D0632C31DC3B7801A907A8254E8DF870
S2144008A00430C04717F8013F621C202B01D0144685
S2144008B0EDE702342B5D2F19FBB1632C1DDC3B7832
S2144008C001A90CA88DF80430B04717F8013F621C08
S2144008D0202B01D01446EFE702342B5D2C4463B145
S2144008E0631B632B09DC237801A911A88DF804301B
S2144008F0B04714F8013F202BF1D10F4C02A8A04777
S2144009000E4BC3E9000107A8A0470D4BC3E9000101
S2144009100CA8A0470B4BC3E9000111A8A0470A4BFF
S214400920C3E9000116B0BDE8F08100BF4938400079
S214400930A06440000938400009374000E00B4020E2
S214400940900A4020880A4020E80840202DE9F041DF
S214400950234D244C6E6924492148A0470028FAD1EB
S214400960224C214F2368DFF8A480FF2B3978204B98
S21440097088BF2060D8F8000098471E4B1E49D8F81C
S214400980000098473A781D4B7B2A02D101221A7004
S2144009901DE07D2A0AD1216800221948226042546F
S2144009A01978A1B11A70174B984710E01B7873B1AD
S2144009B0A2F12003DBB2192B09D8134921FA03F31D
S2144009C0DB0704D523680E49CA540133236016F06A
S2144009D0600F03D02B6843F480732B60BDE8F08132
S2144009E000080E4081244000E0084020F0084020E7
S2144009F0191D4000951D4000986440001009402095
S214400A00E00A4020310840000140FF03C008402073
S214400A10F8B504461F4DA847002604F128004FF0BD
S214400A208047A847002200236821002084F8B010A1
S214400A301949C4E92E23C4E93023C4E93223C4E962
S214400A403423C4E93623C4E93823C4E93A23C4E945
S214400A503C23C4E93E23C4E94623C4E94823C4E909
S214400A604A23C4E94C23C4E94E23C4E95023C4E9CD
S214400A705223C4E95423C4E956236923C4E94201F6
S214400A80C4E95A01C4E9406784F810312046C4E9F5
S214400A905867F8BD5D18400000406F4000000000F9
S214400AA02DE9F04F8FB0AA4CA0470790A047A94B1E
S214400AB01B6803F5FA629042C0F03E82079AA64C45
S214400AC0D01AA64B9847A64DDFF8A4A298A3D3E920
S214400AD00023A047A34CCDE9020104F1B000A8478B
S214400AE004F58870A847A04D00224FF08043AB46DF
S214400AF0D4E9466730463946A8479C4DA0B98EA3F0
S214400B00D3E90023D4E92E01A847804689463046DB
S214400B1039468BA3D3E90023A84702460B464046F6
S214400B204946D04706460F4600224FF0804394ED94
S214400B30487BC4E914678DED007B51EC170BD84712
S214400B40A8B988497CA3D3E90023D1E93001A84756
S214400B5006460F467AA3D3E90023DDE90001A847FD
S214400B6002460B4630463946D047CDE900019DED5A
S214400B70007BD4E94A8900224FF0804340464946EC
S214400B8084ED167BD847B0B976496BA3D3E90023EA
S214400B90D1E93201A84706460F464046494668A373
S214400BA0D3E90023A847724D02460B4630463946E5
S214400BB0A8478046894600226E4B6B4EC4E918898A
S214400BC0D4E94C4520462946B047C0B96549DFF8C8
S214400BD09CA159A3D3E90023D1E93401D047064666
S214400BE00F4620462946624C55A3D3E90023D047FA
S214400BF002460B4630463946A04704460D46594EF7
S214400C0000225C4B584FC6E91A45D6E94E45204669
S214400C102946B847B8B9DFF854A147A3D3E900231B
S214400C20D6E93601D04706460F4620462946504C60
S214400C3043A3D3E90023D04702460B463046394605
S214400C40A04704460D46474E00224A4B464FC6E94B
S214400C501C45D6E9504520462946B847B8B9DFF87E
S214400C600CA135A3D3E90023D6E93801D047064680
S214400C700F46204629463E4C31A3D3E90023D047B1
S214400C8002460B4630463946A04704460D46DFF836
S214400C90D4A042464B46DFF8D4B0CAE91E45DDE94B
S214400CA00001354CA04728A3D3E90023D847DAF8FB
S214400CB05430DAF8504003F10045DAE91623DAE911
S214400CC01889CDE9000110461946D84706460F4612
S214400CD042464B4640464946D84702460B46304673
S214400CE03946234EB047254B984702460B4620468A
S214400CF02946194CA047224B9847224C12A3D3E9C9
S214400D000023D8470022204B9AED1A7BCDE90801F4
S214400D10DDE900018DED047BA047134CDAE91C8920
S214400D20B8B30022194BDAE92801A04730E000BFEB
S214400D300000000080842E419A9999999999E93F3C
S214400D409A9999999999C93FF8C1631ADCA54C407C
S214400D5009184000B0084020CD3240008D2F40009A
S214400D60F90340001809402099354000793040008A
S214400D70152D400000406F4035294000392940007D
S214400D80F12540005D354000008056C0008056404A
S214400D9068B900226E4BDDE90001A047C8B16D4935
S214400DA000226D4B6D4CD1E92801A04788B1694CB3
S214400DB06B4BDDE9000198476A4B01462046984751
S214400DC09DED007B84ED247B84ED287B84ED207BA9
S214400DD016E0634CDDE90201A0470646DDE9040162
S214400DE0A0470546DDE90001A0475A4C2A46014681
S214400DF0334620465C4DA8475C4B9847C4E92801DB
S214400E00544BD3E928015A4B984780EAE073A3EB4A
S214400E10E0735A2B02DD09F100439946504CDDE958
S214400E200201A047494606464046A0470546DDE93A
S214400E300801A047474C2A46334601464A4D04F12E
S214400E4028004C4EA847494B98474B4DDDE90423B4
S214400E50CDE90A01C4E92A01DDE90201B047D4E937
S214400E602023CDE90C01A84742464B46CDE9040174
S214400E70C4E92001DDE90201B047D4E92223CDE9E7
S214400E800201A84782468B46D4E92423C4E922AB14
S214400E90DDE90C01A8472AA3D3E90023B0478046E2
S214400EA0894629A3D3E90023DDE90001B04702467D
S214400EB00B4640464946A847D4E92623C4E92401C0
S214400EC0DDE90201A8471EA3D3E90023B0478046C8
S214400ED089461DA3D3E90023DDE90801B047024651
S214400EE00B4640464946A8471C4D0022234BC4E9C2
S214400EF02601DDE90401A84730B90022204B214EE7
S214400F00DDE90401B04718B1D4E92823C4E9202319
S214400F1000221A4B50465946A84730B90022184B73
S214400F2050465946174DA84718B19DED0A7B84EDAB
S214400F30227B154B079A1A600FB0BDE8F08F00BFB2
S214400F40C3F5285C8FC2ED3FEC51B81E85EBB13F30
S214400F500080564018094020008056C05D3540004D
S214400F60693640003319400085184000D12F4000B4
S214400F70D935400079304000152D4000008066C0CD
S214400F800080664099354000B0084020F8B5144BC4
S214400F900022144CD3E90067134B30463946A0472D
S214400FA048B10022114B30463946114DA84710B182
S214400FB0104BC3E90067104B0022D3E900670A4B89
S214400FC030463946A04748B10022084B304639469D
S214400FD0074CA04710B1094BC3E90067F8BD00BFF6
S214400FE0900A40209935400000003EC000003E4038
S214400FF05D354000B80A4020880A4020C00A40209C
S2144010002DE9F843DFF86C81DFF86C91C847D8F8D3
S214401010003003F5742303F5107398426FD3394CB0
S214401020394F3A4920463A4DB8473A492068A8478A
S214401030394B3A49201D3A4EC91A3A4B9847211D1A
S2144010402046B84738492068A847384B2046D3E959
S2144010500023B04736492068A847364B2046D3E998
S2144010600023B04729492046B84728492046B84774
S21440107031492068A847314B2046D3E90023B04782
S2144010802F492068A8472F4B2046D3E90023B04776
S2144010901E492046B8472C492068A8472B4B18685D
S2144010A02B4B984702460B462046B04717492046EA
S2144010B0B84728492068A847274B2046D3E900234D
S2144010C0B04726492068A847254B2046D3E9002349
S2144010D0B04724492068A847234B2046D3E900233D
S2144010E0B04722492068A847214B2046D3E9002331
S2144010F0B04706492046B847C847C8F80000BDE88C
S214401100F88300BFC008402009024000A2644000A7
S214401110951D4000B4644000900D40209011402042
S214401120A902400015184000BD644000A80A4020AF
S214401130CA644000B00A4020D7644000D808402027
S214401140E0644000E80B4020E9644000F80B402093
S2144011508D2F4000FF644000E00B40200D654000AE
S214401160900A402019654000880A402026654000C5
S214401170E808402000094020091840002DE9F04FBB
S214401180794B8BB09847794B05901C68784B041B7D
S214401190984741F287339C4240F2E380754B76494C
S2144011A0764CDFF81892DFF80082754D93ED007BA1
S2144011B0744B8DED007B93ED007BD1E90001DDE9BA
S2144011C000238DED027BA047CDE906016E49DDE99F
S2144011D00223D1E90001A0476C4B6D4CD3E9006770
S2144011E0CDE9080132463B46DDE90601C847D4E969
S2144011F00023C04782468B4632463B46C4E900AB96
S214401200DDE90801C847DFF89491D5E90023C047D7
S2144012104FF0000806460F4642464B465046594653
S214401220C5E900675B4DA84750B94FF00008DFF8A6
S21440123070915046594642464B46574DA84708B1CE
S214401240C4E900890024554D3046394622462B468F
S214401250DFF84081C04740B90024514D30463946FA
S21440126022462B464C4EB04710B1454BC3E900458D
S2144012704C4B4D4EDFF80481DFF84091D3E900AB8C
S214401280DDE9062310461946B047414BD3E9002313
S214401290B047464B04460D46D3E90023DDE900013E
S2144012A0C04752465B46C84702460B46204629463C
S2144012B0C04704460D46DDE9082310461946B047A8
S2144012C02F4BD3E90023B047394B06460F46D3E9A8
S2144012D00023DDE90201C04752465B46C847024646
S2144012E00B4630463946C047002206460F462B4B33
S2144012F020462946DFF89C80C04750B90022284B3C
S21440130020462946DFF89080C04720B10024244D6F
S21440131001E00024214D274B002230463946C3E9E0
S21440132000451E4B1B4CA04748B900221C4B30467C
S2144013303946194CA04720B10026194F01E0002637
S214401340164F1D4B059A9DED007BC3E90067174B72
S21440135083ED007B9DED027B154B83ED007B034BBD
S2144013601A600BB0BDE8F08F09184000D80A40203C
S2144013708D0F4000A80A4020B80A4020112D40009A
S214401380B8084020B00A4020C00A4020A00A4020AA
S214401390A8084020993540005D354000000059407F
S2144013A0000059C0F8084020152D4000D00A4020C3
S2144013B0980A4020D8084020E80B4020793040006A
S2144013C0344B2DE9F04FD3E900AB334B85B0DFF813
S2144013D0FC8050460BF10041304F314E314C324D7F
S2144013E0DFF8EC9093ED007B304B8DED007B93ED7A
S2144013F0007BDDE900238DED027BC047B847B04750
S214401400DDE90223A04700220023A047A847284B37
S214401410524618605B46DDE90001C047B847B04712
S214401420DDE90223A047A847224B5946186050469C
S214401430DDE90023A047B847B047DDE90223A047CF
S21440144000220023A047A8475946C9F80000504646
S214401450DDE90023C047B847B047DDE90223A0478F
S214401460154CA847154B01461868A047104B1968FD
S214401470134B1868A0470F4B1968124B1868A047C3
S214401480114BD9F800101868234605B0BDE8F04F58
S214401490184700BFD8084020E80B4020D935400008
S2144014A0AD2F4000152D400029364000E00B40206F
S2144014B00C094020C80A4020691C4000F00B402020
S2144014C0F40B40200409402008094020112D40001C
S2144014D0F40840202DE9F341654B9847654B984703
S2144014E0654C0A20A0470B20A0471020A047BFF31A
S2144014F04F8FBFF36F8F614B0022C3F850225A695B
S21440150042F400325A61BFF34F8FBFF36F8FD3F868
S214401510802002F00704C2F34E31C2F3C9020434FD
S214401520B2FA82F505F01F05BFF34F8F104601FA59
S21440153004FE00FA05F610F1FF30504F46EA0E065C
S214401540C3F86062F5D211F1FF31EFD2BFF34F8F8F
S2144015507B6943F480337B61BFF34F8FBFF36F8F5C
S214401560EFF31083B3FA83F35B09019372B6BFF3CC
S2144015705F8F434A00234349137001980B6843F436
S21440158070030B60BFF34F8FBFF36F8F20B1012303
S2144015901370BFF35F8F62B63B4AE02100243B4D99
S2144015A0D2F814313A4843F03003C2F8143140F2CE
S2144015B02B12384B5A60314A82F8231007229C601F
S2144015C020211A608022C3F8702283F8F713612125
S2144015D0C3F8F020304B98472868304B9847204651
S2144015E02F4B9847C4B244B12E4928682E4B984793
S2144015F0214628462D4B9847FEE72D4928462D4E36
S2144016002D4CB047DFF8EC80A0472C482C4B474683
S21440161098472C482C4B9847284625462B49B04798
S214401620A047D8F8003003F59C5308339842F7D3C8
S214401630A847274B06469847204B264AD3E9280119
S214401640C2E90001D3E92A01234BC3E90001234B39
S2144016509847234B9847234B9847A847224B801BD5
S2144016601860A847214B386021489847D8E700BF04
S214401670991E4000932440001122400000ED00E0F7
S2144016800000402088ED00E000800840C008402070
S21440169000080E4010E000E06D244000C11C4000F1
S2144016A0BD1D400031654000951D40008902400048
S2144016B041654000090240000918400018094020D2
S2144016C089054000A0860100F51740004D654000A2
S2144016D0A10A4000A80A4020B00A4020011040005D
S2144016E07D114000C1134000F80B4020011B400014
S2144016F050180E40DC0A40200022104B012010B546
S2144017001A600F4B0F4C1860A04702200E4B186013
S214401710A04703200D4B1860A04704200C4B1860D0
S214401720A0470C4B0C489847002200230B49C1E9C0
S21440173000230B49C1E9002310BD00BFC00840206C
S214401740F00B4020851B4000F40B4020040940204D
S21440175008094020110A400018094020A00A4020ED
S214401760F8084020F7B5154D0024026B0126C36AE1
S2144017701340421B124D50420193504105EB8015D9
S2144017802F460B2C03D8019B06FA04F206E00F2CDA
S21440179009D004F10C03019A06FA03F3134208D069
S2144017A055F8243003E0019B5B0002D5FB6B03B188
S2144017B098470134102CE4D103B0F0BD00400640F9
S2144017C00C0D40200148024B184700BF00C00340A4
S2144017D0651740000148024B184700BF00400640CE
S2144017E065174000024A136801331360704700BF14
S2144017F0FC0B4020034B19681A68521A8242FBD3EE
S214401800704700BFFC0B4020014B1868704700BF74
S214401810FC0B4020CB17002201EBE17170B559401C
S214401820451E0A260132B1FBF6F406FB1411303190
S21440183005F8011F2146002CF4D103F001032D24A6
S21440184013448454C154013B994205D2425CC45C63
S21440185044540131C254F6E770BD0000064A0260A7
S214401860064A4260064A82600022C2600261826185
S214401870C2610262426270476F12833AA69B443B43
S2144018808FC2F53C90ED044A07EE902AD0ED075AF9
S21440189005EE103A77EEC47AD0ED036AF0EE654A6C
S2144018A090ED086AE7EE856AC0ED057AD0ED097AD4
S2144018B0D5EE274A34EEC67AD0ED004A77EE244A73
S2144018C090ED067AA5EE247AF1EE454AE4EEA75A64
S2144018D0A4EEA76AD0ED014AE5EE247A90ED025ACE
S2144018E037EE055AC7EE053AC6EE054A05EE101A1B
S2144018F035EE665AE3EE856AA4EE854AB1EE475A5F
S214401900C0ED036AA5EE237AA5EE246A80ED044A6C
S21440191080ED067AB1EE657A80ED086AE7EE235AE6
S214401920E7EE247AC0ED075AC0ED097A16EE900A23
S2144019307047C16070470000204B994210B53BD8B5
S214401940A3F57A53994220D91D4B1E4C0B449B005D
S214401950B2FBF4F4B2FBF3F2033C033A0023FF2C51
S21440196008D9072B06D001336408F8E7072B03D0C5
S21440197001335208FF2AF9D812021B0492B203F42C
S214401980E023E4B21A43224313E049000023B2FBAB
S214401990F1F2033AFF2A04D9072B02D0013352084A
S2144019A0F8E711021B0489B203F4E023D2B20B43DA
S2144019B01A430261002010BD012010BD801A0600A7
S2144019C00012FD3F00B80B004FF0FF3208B58262B0
S2144019D0026A8022074B0260026B082202602022C5
S2144019E00260042202600A6849689847431E5842CB
S2144019F0584108BD3919400070B5CC68002C3AD023
S214401A0000268D6846604B681B0203F4407343F41F
S214401A1080520B7C1B0403F4FE0313434360C660F2
S214401A204A685AB1012A0B7809DD4E78022A46EAFE
S214401A30032304D08A7842EA032300E01346C360B7
S214401A4002210123036043F6992374B1026AD60546
S214401A5013D4013B13D0012C00D101609207F4D57A
S214401A60036B013C05F8013BEDE7036ADB07FCD559
S214401A70036A002070BD012070BD052070BD09209E
S214401A8070BD70B5CD680246002D35D000268C68F6
S214401A9046600B7C1B0403F4FE004B681B0203F4F9
S214401AA0407303435360D660486858B101280B78AA
S214401AB009DD4E78022846EA032304D0897841EAB5
S214401AC0032300E003462544D360A54208D0136AAA
S214401AD0DE0513D45807F8D514F8013B5363F4E7F2
S214401AE0136A13F4807009D15907F9D5022313609D
S214401AF0136ADB07FCD570BD012070BD052070BDA4
S214401B00024B984201D1024B0360704750180E407A
S214401B10010000A500F01F024009012300F5001057
S214401B2093400A0700F207704FEA402001D543660B
S214401B3000E00366CA0602D5C0F8943001E0C0F85B
S214401B4090308A0601D5036500E0436511F0C00F6A
S214401B5001D0036200E043620A0602D5C0F8843032
S214401B6001E0C0F88030026F11F0010F14BF1A4335
S214401B709A4389070267426F4CBF134322EA030326
S214401B80436770471FB50138032854D8DFE800F094
S214401B90020D1A28294B0B2200245A60DC75214678
S214401BA02046274B9847012209E0244B0B2201246C
S214401BB000215A600220DC75214B98470422214BB5
S214401BC05A6019E01D4B0C2201210D205A60022458
S214401BD0D9751B4B98474FF400521A4B5A600BE08E
S214401BE0164B0C22012107205A600324D975144B4A
S214401BF098478022134B5A60134B1F209847214624
S214401C001248134B9847134B01A91048019302936F
S214401C10114B0393114B984708494FF47A730B487E
S214401C200C600B610023CB600B810D4B984721461F
S214401C3006480C4B984704B010BD00BF140C40201B
S214401C40151B4000000E0E401122400000000240CE
S214401C5037244000801A060000A3E1119D22400070
S214401C60DD2240002D244000013870B50D46032883
S214401C701AD8DFE800F008020406012404E0022433
S214401C8002E0032400E0002421460848084B984719
S214401C900849094B0548CD600C60984721460348E3
S214401CA0064BBDE87040184770BD00BF00000240BC
S214401CB037244000140C4020DD2240002D244000F4
S214401CC01FB50F4B01934FF4E13302934FF400637B
S214401CD0039398B90B4B072098470B4C4FF4806200
S214401CE04FF000610948A0474FF0006107484FF4A5
S214401CF00072A04701A90648064B984704B010BD9D
S214401D0080D1F00811224000951F4000000E0E4082
S214401D1000080E404124400038B50C4603281ED823
S214401D20DFE800F0020910170D4D21460D48A84780
S214401D300028FAD138BD0A4D21460B48A84700284E
S214401D40FAD138BD064D21460848A8470028FAD1A2
S214401D5038BD034D21460648A8470028FAD138BD6D
S214401D607124400000080E40000A0E40001A0E4043
S214401D70001C0E40F8B506460C468D18044FAC4283
S214401D8004D014F8011B3046B847F8E7F8BD00BF4A
S214401D90191D400070B505460C4649B10846054B2E
S214401DA0984721460246044B2846BDE870401847EF
S214401DB070BD00BF41394000751D400030B54FF042
S214401DC0006185B00446154D2420A8474FF00061B9
S214401DD02520A847124D1420A847124A1420D2F8AE
S214401DE0143143F03003C2F8143100230E4A0393F3
S214401DF00E4B1474029301238DF80C405360D3604D
S214401E000B4A5360D3600B4B14740193A84701A947
S214401E10094B0A48984705B030BD00BF6D204000CA
S214401E201122400000800840500C4020801A0600D6
S214401E30000C402080D1F008C919400000C0014085
S214401E4007B5002302AA02F8013D064B1970194651
S214401E5018749A600448054B98479DF8070003B0ED
S214401E605DF804FB500C402000C00140F9194000CA
S214401E7013B5064B02AC1970194604F8012D1874B8
S214401E809C60034B0348984702B010BD000C4020AE
S214401E90831A400000C0014070B51048104C114DE8
S214401EA0A0473E210020104B9847A8470028FCD06A
S214401EB00E4B98470E4D0F4A0F4B9A62A847002884
S214401EC0FCD002200D4B98470D4B002098470D4BF9
S214401ED0984723460148BDE87040184700A3E111E3
S214401EE061254000E121400091214000F121400061
S214401EF001224000013F182000060E4021214000EC
S214401F004D21400095244000F8B50446124B0F463C
S214401F1098470546114B2046984705401AD0104C26
S214401F2004F1600654F80C3CBB420FD154F8081C30
S214401F3029420BD023683846984754F8083CA642B6
S214401F4025EA030506D0103425B1EBE7A64201D0BA
S214401F501034E7E7F8BD00BF652040006920400028
S214401F60700C40200A210148014B1847000E0E40D5
S214401F70091F40000B210148014B184700100E4036
S214401F80091F400010210148014B184700140E401D
S214401F90091F4000B1F1C05F426410B52DD007D88C
S214401FA0B1F1006F15D0B1F1805F1DD071BB10BD8F
S214401FB0B1F1205F2BD005D8B1F1005F26D1036F79
S214401FC013431FE0B1F1405F21D0B1F1605F1ED0F6
S214401FD01CE0046FD343016F214019400167446FF2
S214401FE0416F21400B4010E0036F13430367416F7E
S214401FF0436F0B4023EA020307E0016F036F0B4079
S21440200023EA02030367436F13434367426010BDEE
S214402010D307416401D5416600E0016612F00A0F1D
S21440202001D0016200E04162930702D5C0F88010FB
S21440203003E0130701D5C0F8841041610160704782
S21440204010B5029C41640CB1416600E001660BB1DC
S214402050016500E041650AB1016300E0416301614A
S214402060016010BDC06C7047806C7047F7B545097D
S2144020700E4601F0F04105F50015B1F1005F05F29E
S21440208007754FEA45251DD009D8B1F1805F19D0B4
S214402090B1F1C05F16D0B1F1006F38D112E0B1F1A6
S2144020A0405F1FD0B1F1605F1CD0B1F1205F2ED1F0
S2144020B000F01F0101243246284604FA01F1154B70
S2144020C0984722E000F01F0401272846124B07FAE3
S2144020D004F422469847F60702D42C66384617E0A2
S2144020E06C66FBE706F0605200F01F01012402F127
S2144020F0484006EA040304FA01F142420093C6F35C
S214402100800342412846054DA847204600E000206F
S21440211003B0F0BD11204000951F40004120400014
S2144021200238022896BF074B002233F81020064B91
S214402130196B21F440710A431A639A6E1207FCD554
S214402140704700BF5E65400000060E400F4B1A6B9E
S21440215022F07002104341F201021863986E0B4958
S214402160000703D4013AF9D1012070470A6B22F0E8
S214402170030242F002020A6341F20102996E090725
S21440218002D4013AFAD1EFE70020704700060E402D
S21440219010B5104C30B1236A0F4A1A400F4B134308
S2144021A0236210BD226A090222F45C1389B223F02E
S2144021B0030343F45C1343F001030B432362A36E13
S2144021C0044ADB07FBD5136A43F09B7343F4803322
S2144021D0136210BD00060E40FCFFC8FE0200370129
S2144021E0024B986E00F48030704700BF00060E40E9
S2144021F04FF00052014B9A62704700BF00060E40F7
S214402200024B986E00F00200704700BF00060E407A
S2144022103F2817D81F280D4A4FF0010307D8916969
S21440222003FA00F030EA01030ED010610CE02038CB
S214402230D2F8081103FA00F030EA010304D0C2F8DD
S214402240000101E0012070470020704700060E4064
S214402250F0B5114D8DB006460F4601AC0FCD0FC4FC
S2144022600FCD0FC495E8070084E80700002201A9B7
S21440227051F82230B7FBF3F0B0FBF6F0B0F5807FB4
S21440228005D901320B2AF3D14FF6FF7001E040EA40
S21440229002200DB0F0BD00BF6465400070B5064634
S2144022A008680D4640B10C4B896898474FF6FF7357
S2144022B00446984201D10EE00446686840B1064B99
S2144022C0A96898474FF6FF73984204D044EA004402
S2144022D03460002070BD70BD512240004A680B68D3
S2144022E002F00F0270B58C8A22430C8922438C7A06
S2144022F042EA44228C7D42EA0442CC7D42EA444291
S2144023000C7E42EA844200EB4314C4F80022CA68BA
S214402310C4F804220A69C4F80C228A7D1AB1D1F89E
S2144023201A20C4F818224FF00112846C9A40D24307
S21440233004EA0205CC7F04FA03F68C7F9C4044EA0C
S21440234006442C438464446C224091F8214004FAAD
S21440235003F591F820409C4044EA054422434264F9
S214402360012291F822409A4014B1046A144302E0D4
S214402370046A24EA0204046291F82440022C05D13F
S214402380D0F8C0401443C0F8C0400DE0D0F8C0506C
S214402390D6433540C0F8C05091F82440012C846E96
S2144023A00CBF14433440846691F825401204022C36
S2144023B0D0F8C04003D12243C0F8C0200DE0D5433A
S2144023C02C40C0F8C04091F82540012C02D1846EC4
S2144023D0224301E0826E2A408266DB00FF22C56E01
S2144023E09A4025EA020491F823209A402243C26686
S2144023F053B991F82C20012A8A6A22F07F4208BFFE
S21440240042F08072C0F8A02000EB4310D0F80032B3
S21440241023F40023C0F800328B6BD0F8002203F47C
S21440242000231343C0F80032002070BD012303FA96
S21440243001F141607047012303FA01F18160704762
S214402440AC2310B503604A680B68B3FBF2F31B0974
S2144024504FF6FE725C1E944206D803628B68436059
S21440246050230360002010BD012010BD81607047DE
S21440247043699B0702D5C161002070470120704721
S2144024804369DB0703D5836900200B707047012042
S214402490704770472C4A2D4B10B5116B01F0030165
S2144024A001290CD002D302291AD03BE028494969B9
S2144024B00C064CBF4FF400414FF4FA4131E0116A2C
S2144024C0C8010BD423491960116A01F07001102924
S2144024D002D0202902D025E01F4922E01F4920E0F3
S2144024E0116AC9010BD41B491960116A01F07001C9
S2144024F0102902D0202902D003E0174900E01749EE
S2144025001960116B104801F0030102290AD1816A53
S214402510806AC1F30A441968C0B204FB0111B1FBDA
S214402520F0F11960126B02F07002702A04D11A683A
S2144025300321B2FBF1F205E0034A126BC2F302112B
S2144025401A68CA401A6010BD00060E4004004020BB
S21440255010180E4000093D0000127A00001BB7001C
S2144025600E4B98420E4B02D84FF0806214E00D4A54
S214402570904201D80C4A0FE00C4A904201D80C4ACF
S2144025800AE00C4A904201D80B4A05E00B4A9042BA
S21440259094BF4FF004220A4A1A607047FF2C31015C
S2144025A0000C0E40FF59620200010004FF869303B0
S2144025B000020004FFB3C40400030004FFE0F50576
S2144025C000050004074B1A680AB9074A1A601B68D8
S2144025D0064A18448242A3BF024A106018464FF08B
S2144025E0FF307047D40C402090134020FCFF45201D
S2144025F02DE9F84FC04B21F000469E420D468A46D4
S21440260004460FDDBD4B9E4200F3B28000F0AD8025
S214402610BB4BBC49BC4CBAF1000FC8BF194620465C
S214402620BDE8F88FB94B9E4200F3BC80A3F1DE7341
S2144026309E4240F3A7804FF0FF3B22462B46204663
S214402640294600F019FD02460B468046894600F0B2
S21440265013FD91A3D3E9002306460F4600F00CFD78
S2144026608FA3D3E9002300F055FB32463B4600F0EB
S21440267003FD8DA3D3E9002300F04CFB32463B46D6
S21440268000F0FAFC8AA3D3E9002300F043FB32466D
S2144026903B4600F0F1FC88A3D3E9002300F03AFB68
S2144026A032463B4600F0E8FC85A3D3E9002300F021
S2144026B031FB42464B4600F0DFFC83A3D3E90023C0
S2144026C0804689463046394600F0D6FC80A3D3E99A
S2144026D0002300F01DFB32463B4600F0CDFC7EA3B7
S2144026E0D3E9002300F014FB32463B4600F0C4FC1E
S2144026F07BA3D3E9002300F00BFB32463B4600F0B9
S214402700BBFC79A3D3E9002300F002FB32463B46EC
S21440271000F0B2FCBBF1FF3F02460B4669D0404694
S214402720494600F0F7FA22462B4600F0A5FC784EC4
S214402730784B4FEACB0B5E449B44DBE9002300F02A
S214402740E7FA22462B4600F0E3FA02460B46D6E965
S214402750000100F0DDFABAF1000F0446BFF65FAFA5
S21440276001F100412046BDE8F88F00283FF450AF05
S214402770224620462B46294600F0CCFA0446204600
S214402780BDE8F88F5AA3D3E9002300F0C3FA00222D
S214402790614B00F001FF00283FF44DAF294620462C
S2144027A0BDE8F88F00F0C2F85C4B9E4204460D46EA
S2144027B02FDCA3F550239E4254DC02460B4600F025
S2144027C0A9FA0022544B00F0A3FA002206460F4610
S2144027D04FF080432046294600F09CFA02460B46BE
S2144027E03046394600F072FD4FF0000B04460D4669
S2144027F023E74046494600F08DFA22462B4600F035
S2144028003BFC02460B462046294600F081FA044629
S21440281005E7434B9E421ADC0022424B00F078FA12
S214402820002206460F463F4B2046294600F024FC31
S2144028300022394B00F06EFA02460B4630463946C7
S21440284000F044FD4FF0020B04460D46F5E6024606
S2144028500B460020344900F039FD4FF0030B044688
S2144028600D46EAE600222C4B00F052FA00220646BD
S2144028700F46294B2046294600F04CFA02460B46A6
S2144028803046394600F022FD4FF0010B04460D4617
S214402890D3E600BFAFF3008011DA22E33AAD903FB3
S2144028A0EB0D76244B7BA93F513DD0A0660DB13F42
S2144028B06E204CC5CD45B73FFF8300922449C23FAA
S2144028C00D5555555555D53F2F6C6A2C44B4A2BF6F
S2144028D09AFDDE522DDEAD3F6D9A74AFF2B0B33F37
S2144028E0711623FEC671BC3FC4EB98999999C93FAF
S2144028F09C7500883CE4377EFFFF0F440000F07F65
S214402900FB21F93FFB21F9BF182D4454FFFFDB3F65
S214402910B0654000906540000000F03FFFFFF23F8A
S214402920FF7F03400000F83F0000F0BF21F0004169
S214402930704700BF00F05CB82DE9F04F8BB00446FE
S2144029400D4600F01FF9284B93F900A0BAF1FF3F5F
S21440295006460F4612D022462B462046294600F011
S21440296025FE834650B94FF000084FF00009424616
S2144029704B462046294600F0F1FD20B93046394600
S2144029800BB0BDE8F08F194BCDF820B00122CDE951
S2144029900445CDE902458DE80C00BAF1000F15D08C
S2144029A042464B464046494600F090FCBAF1020F7C
S2144029B0CDE906010CD100F0ABFE21230360089B55
S2144029C063B9DDE906010BB0BDE8F08FCDE90689B5
S2144029D0684600F097F90028F1D1ECE700F098FE41
S2144029E0089B0360EDE700BF08004020D06540002C
S2144029F02DE9F84F5442144323F00049DFF880E1B4
S214402A0049EAD474744506460D463ED844420443CB
S214402A1021F0004B4BEAD47474458A4635D803F10E
S214402A20404404F58014144344D09C1704F0020438
S214402A3044EAD17450EA0B012FD052EA090133D050
S214402A40F14546D0F3452FD0C9EB0B094FEA29593B
S214402A50B9F13C0F34DC002B57DB3046294600F0FA
S214402A6035FCFFF763FFFFF7C3FD012C4AD0022C6D
S214402A703BD084B132A3D3E9002300F049F932A316
S214402A80D3E9002300F044F905E0104619463246E3
S214402A902B4600F03FF9BDE8F88F022C14D0032CEB
S214402AA00CD12D482D49F6E7BAF1000F2A480EDB27
S214402AB02B49F0E7BDE8F84FFFF79ABD2946EAE70D
S214402AC023A1D1E90001D0E723482649E3E7264978
S214402AD0E1E7CB451FD0022CF6D0032CE1D0012CE9
S214402AE04FF0000020D00146D5E715A3D3E90023D8
S214402AF000F00EF902460B4613A1D1E9000100F0A2
S214402B0007F9C8E701F10041C5E719F13C0FA4DA1F
S214402B1000200021A9E7022C0ED0032C09D0012C5E
S214402B200D4804D01149B6E74FF00041B3E71049CD
S214402B30B1E710481049AEE70E481049ABE700BF72
S214402B40075C143326A6A13C182D4454FB210940AB
S214402B50182D4454FB21F93F182D4454FB2109C03D
S214402B60FB21F93FFB210940FB21F9BFFB21E93F4F
S214402B70FB21E9BFD221337F7CD902C07CD90240F9
S214402B800000F07F2DE9F8435D4EB6460E40764590
S214402B900C46054600F0958000290B46024673DD3C
S214402BA00F157ED0A7F2FF37C3F31303F80743F49D
S214402BB0801364D403EBD27100260B447F1052007E
S214402BC0B64616204FF400110EEB01049C424FEA25
S214402BD0D2754FEA420203DC1B1B04EB010E0E4487
S214402BE0013805EB43034FEA5101EDD184462024DA
S214402BF04FF0004109E020D003EBD275013C4FEA8C
S214402C0051012B444FEA420220D09E4501EB0C0571
S214402C10F1DA002D05EB010C09DBF0469542CEEBD0
S214402C20030300D9013B521B0844C646E4E7BCF107
S214402C30000FF2DB0EF10108F0E7954217D8002DA1
S214402C4005EB010C47DB98460023ECE7134310D115
S214402C504008731003F17F5303F50013F20703EBAC
S214402C60075948BF40F000404946BDE8F8837346E0
S214402C70C2E7411C33D000F001031844E8E75B008C
S214402C8003EBD273520095E721F000460643ECD0A2
S214402C9069BB0F46D30A153F5205002BFAD0DD021A
S214402CA020D4002100E001465B00DC0201F1010077
S214402CB0F9D5C0F1200422FA04F423437F1A824057
S214402CC070E702460B4600F0D7F92A46234600F046
S214402CD021F8BDE8F883BCF1000FABDAB3E7013664
S214402CE02046B6E720244FF0FF310020E3E70246B7
S214402CF00B4600F00DF802460B4600F0E7FAB4E744
S214402D000000F07F0020704781F0004102E000BFE5
S214402D1083F0004330B54FEA41044FEA430594EA56
S214402D20050F08BF90EA020F1FBF54EA000C55EA91
S214402D30020C7FEA645C7FEA655C00F0E2804FEA62
S214402D405454D4EB5555B8BF6D420CDD2C4480EA44
S214402D50020281EA030382EA000083EA010180EA74
S214402D60020281EA0303362D88BF30BD11F0004FC2
S214402D704FEA01314FF4801C4CEA113102D04042F8
S214402D8061EB410113F0004F4FEA03334CEA133333
S214402D9002D0524263EB430394EA050F00F0A7804B
S214402DA0A4F10104D5F1200E0DDB02FA0EFC22FA46
S214402DB005F2801841F1000103FA0EF2801843FA3A
S214402DC005F359410EE0A5F120050EF1200E012A2B
S214402DD003FA0EFC28BF4CF0020C43FA05F3C01869
S214402DE051EBE37101F0004507D54FF0000EDCF1E2
S214402DF0000C7EEB00006EEB0101B1F5801F1BD38B
S214402E00B1F5001F0CD349085FEA30004FEA3C0C8E
S214402E1004F101044FEA445212F5800F80F09A8084
S214402E20BCF1004F08BF5FEA500C50F1000041EB88
S214402E30045141EA050130BD5FEA4C0C404141EB8C
S214402E40010111F4801FA4F10104E9D191F0000FB3
S214402E5004BF01460020B1FA81F308BF2033A3F136
S214402E600B03B3F120020CDA0C3208DD02F1140C2D
S214402E70C2F10C0201FA0CF021FA02F10CE002F168
S214402E801402D8BFC2F1200C01FA02F120FA0CFC61
S214402E90DCBF41EA0C019040E41AA2BF01EB0451AA
S214402EA0294330BD6FEA04041F3C1CDA0C340EDCA8
S214402EB004F11404C4F1200220FA04F001FA02F3EB
S214402EC040EA030021FA04F345EA030130BDC4F1A9
S214402ED00C04C4F1200220FA02F001FA04F340EA9E
S214402EE00300294630BD21FA04F0294630BD94F04F
S214402EF0000F83F4801306BF81F480110134013D36
S214402F004EE77FEA645C18BF7FEA655C29D094EAA6
S214402F10050F08BF90EA020F05D054EA000C04BF24
S214402F201946104630BD91EA030F1EBF002100200F
S214402F3030BD5FEA545C05D14000494128BF41F0AE
S214402F40004130BD14F580043CBF01F5801130BD12
S214402F5001F0004545F0FE4141F470014FF000009D
S214402F6030BD7FEA645C1ABF194610467FEA655C4E
S214402F701CBF0B46024650EA013406BF52EA0335F0
S214402F8091EA030F41F4002130BD00BF90F0000FDE
S214402F9004BF0021704730B54FF4806404F132041A
S214402FA04FF000054FF0000150E700BF90F0000FD3
S214402FB004BF0021704730B54FF4806404F13204FA
S214402FC010F0004548BF40424FF000013EE700BFCA
S214402FD042004FEAE2014FEA31014FEA02701FBF5A
S214402FE012F07F4393F07F4F81F06051704792F02C
S214402FF0000F14BF93F07F4F704730B54FF46074A6
S21440300001F0004521F0004120E700BF50EA0102F0
S21440301008BF704730B54FF000050AE050EA01029D
S21440302008BF704730B511F0004502D5404261EB0D
S21440303041014FF4806404F132045FEA915C3FF44E
S214403040DCAE4FF003025FEADC0C18BF03325FEAE7
S214403050DC0C18BF033202EBDC02C2F1200300FA9C
S21440306003FC20FA02F001FA03FE40EA0E0021FAC1
S21440307002F11444C1E600BF70B54FF0FF0C4CF4AB
S214403080E06C1CEA11541DBF1CEA135594EA0C0F61
S21440309095EA0C0F00F0DEF82C4481EA030621EA9C
S2144030A04C5123EA4C5350EA013518BF52EA0335D7
S2144030B041F4801143F4801338D0A0FB02CE4FF089
S2144030C00005E1FB02E506F00042E0FB03E54FF0B9
S2144030D00006E1FB03569CF0000F18BF4EF0010EB1
S2144030E0A4F1FF04B6F5007F64F5407404D25FEAAD
S2144030F04E0E6D4146EB060642EAC62141EA555160
S2144031004FEAC52040EA5E504FEACE2EB4F1FD0CA1
S21440311088BFBCF5E06F1ED8BEF1004F08BF5FEA1F
S214403120500E50F1000041EB045170BD06F00046D1
S21440313046EA010140EA020081EA0301B4EB5C047E
S214403140C2BFD4EB0C0541EA045170BD41F4801176
S2144031504FF0000E013C00F3AB8014F1360FDEBF9B
S214403160002001F0004170BDC4F10004203C35DA77
S2144031700C341BDC04F11404C4F1200500FA05F3FA
S21440318020FA04F001FA05F240EA020001F000429B
S21440319021F0004110EBD37021FA04F642EB060111
S2144031A05EEA430E08BF20EAD37070BDC4F10C043B
S2144031B0C4F1200500FA04F320FA05F001FA04F2FF
S2144031C040EA020001F0004110EBD37041F10001EB
S2144031D05EEA430E08BF20EAD37070BDC4F12005F6
S2144031E000FA05F24EEA020E20FA04F301FA05F25E
S2144031F043EA020321FA04F001F0004121FA04F206
S21440320020EA020000EBD3705EEA430E08BF20EAD5
S214403210D37070BD94F0000F0FD101F0004640000F
S21440322041EB010111F4801F08BF013CF7D041EA91
S214403230060195F0000F18BF704703F00046520095
S21440324043EB030313F4801F08BF013DF7D043EA66
S2144032500603704794EA0C0F0CEA135518BF95EA1C
S2144032600C0F0CD050EA410618BF52EA4306D1D1A3
S21440327081EA030101F000414FF0000070BD50EAC2
S214403280410606BF1046194652EA430619D094EA4C
S2144032900C0F02D150EA013613D195EA0C0F05D136
S2144032A052EA03361CBF104619460AD181EA03018A
S2144032B001F0004141F0FE4141F470014FF0000042
S2144032C070BD41F0FE4141F4780170BD70B54FF0DD
S2144032D0FF0C4CF4E06C1CEA11541DBF1CEA13555D
S2144032E094EA0C0F95EA0C0F00F0A7F8A4EB05043F
S2144032F081EA030E52EA03354FEA013100F0888036
S2144033004FEA03334FF0805545EA131343EA1263FE
S2144033104FEA022245EA111545EA10654FEA0026B3
S2144033200EF000419D4208BF964244F1FD0404F56C
S214403330407402D25B084FEA3202B61A65EB0305C8
S2144033405B084FEA32024FF480104FF4002CB6EB85
S214403350020E75EB030E22BFB61A754640EA0C0005
S2144033605B084FEA3202B6EB020E75EB030E22BF45
S214403370B61A754640EA5C005B084FEA3202B6EB86
S214403380020E75EB030E22BFB61A754640EA9C0045
S2144033905B084FEA3202B6EB020E75EB030E22BF15
S2144033A0B61A754640EADC0055EA060E18D04FEAD3
S2144033B0051545EA16754FEA06164FEAC30343EA73
S2144033C052734FEAC2025FEA1C1CC0D111F4801F40
S2144033D00BD141EA00014FF000004FF0004CB6E739
S2144033E011F4801F04BF01430020B4F1FD0C88BFD8
S2144033F0BCF5E06F3FF6AFAEB5EB030C04BFB6EBE3
S214403400020C5FEA500C50F1000041EB045170BDD5
S2144034100EF0004E4EEA113114EB5C04C2BFD4EB02
S2144034200C0541EA045170BD41F480114FF0000E86
S214403430013C90E645EA060E8DE60CEA135594EA02
S2144034400C0F08BF95EA0C0F3FF43BAF94EA0C0F05
S2144034500AD150EA01347FF434AF95EA0C0F7FF47A
S21440346025AF104619462CE795EA0C0F06D152EACE
S21440347003353FF4FDAE1046194622E750EA4106B2
S21440348018BF52EA43067FF4C5AE50EA41047FF4C3
S2144034900DAF52EA43057FF4EBAE12E74FF0FF3C28
S2144034A006E000BF4FF0010C02E000BF4FF0010CF9
S2144034B04DF804CD4FEA410C7FEA6C5C4FEA430C72
S2144034C018BF7FEA6C5C1BD001B050EA410C0CBFC1
S2144034D052EA430C91EA030F02BF90EA020F002023
S2144034E0704710F1000F91EA030F58BF994208BF8A
S2144034F090422CBFD8176FEAE37040F00100704747
S2144035004FEA410C7FEA6C5C02D150EA013C07D19D
S2144035104FEA430C7FEA6C5CD6D152EA033CD3D0E8
S2144035205DF8040B704700BF8446104662468C46E2
S2144035301946634600E000BF01B5FFF7B7FF002815
S21440354048BF10F1000F01BD4DF808EDFFF7F4FF3E
S2144035500CBF012000205DF808FB00BF4DF808EDC9
S214403560FFF7EAFF34BF012000205DF808FB00BFEC
S2144035704DF808EDFFF7E0FF94BF012000205DF80E
S21440358008FB00BF4DF808EDFFF7CEFF94BF0120C3
S21440359000205DF808FB00BF4DF808EDFFF7C4FFBC
S2144035A034BF012000205DF808FB00BF4FEA410C05
S2144035B07FEA6C5C02D150EA013C0AD14FEA430CE8
S2144035C07FEA6C5C02D152EA033C02D14FF0000025
S2144035D070474FF0010070474FEA410212F5001263
S2144035E015D211D56FF47873B3EB625212D94FEA05
S2144035F0C12343F0004343EA505311F0004F23FAEF
S21440360002F018BF404270474FF00000704750EA43
S214403610013005D111F0004008BF6FF00040704700
S2144036204FF00000704700BF4A0011D212F500125A
S21440363011D20DD56FF47873B3EB62520ED44FEAC5
S214403640C12343F0004343EA505323FA02F0704745
S2144036504FF00000704750EA013002D14FF0FF3083
S21440366070474FF0000070474FEA4102B2F1E04326
S21440367024BFB3F5001CDCF1FE5C0DD901F0004C14
S2144036804FEAC0024CEA5070B2F1004F40EB830064
S21440369008BF20F00100704711F0804F21D113F190
S2144036A03872BCBF01F00040704741F480114FEAC9
S2144036B05252C2F11802C2F1200C10FA0CF320FA52
S2144036C002F018BF40F001004FEAC1234FEAD3236F
S2144036D003FA0CFC40EA0C0023FA02F34FEA4303D9
S2144036E0CCE77FEA625307D150EA01331EBF4FF062
S2144036F0FE4040F44000704701F0004040F0FE407D
S21440370040F40000704700BF002101F00FB900BF31
S214403710014B1868704700BF3804402070B50F4E04
S2144037200F4D761BB61018BF002405D0013455F84F
S214403730043B9847A642F9D10A4E0B4D761B03F040
S21440374085F8B61018BF002406D0013455F8043B5F
S2144037509847A642F9D170BD70BD00BF586840007A
S21440376058684000646840005868400070B4840759
S21440377046D0541E002A41D0CDB2034602E0621E17
S214403780E4B3144603F8015B9A07F8D1032C2ED90C
S214403790CDB245EA05250F2C45EA054519D903F172
S2144037A010022646103E0F2E42F8105C42F80C5C83
S2144037B042F8085C42F8045C02F11002F2D8A4F128
S2144037C0100222F00F0204F00F041032032C1344B0
S2144037D00DD91E462246043A032A46F8045BFAD818
S2144037E0221F22F003020432134404F003042CB1D7
S2144037F0C9B21C4403F8011BA342FBD170BC7047FE
S21440380014460346C2E700BF830710B5044610D1EE
S2144038100268A2F1013323EA020313F0803F08D185
S21440382050F8042FA2F1013323EA020313F0803F3D
S214403830F6D003781BB110F8013F002BFBD100F007
S21440384003F8204610BD00BF80EA0102844612F00D
S214403850030F4FD111F0030F32D14DF8044D11F044
S214403860040F51F8043B0BD0A3F101329A4312F0F7
S214403870803F04BF4CF8043B51F8043B16D100BFD0
S21440388051F8044BA3F101329A4312F0803FA4F161
S21440389001320BD14CF8043BA24312F0803F04BFE8
S2144038A051F8043B4CF8044BEAD023460CF8013B55
S2144038B013F0FF0F4FEA3323F8D15DF8044B7047FF
S2144038C011F0010F06D011F8012B0CF8012B002A3D
S2144038D008BF704711F0020FBFD031F8022B12F02C
S2144038E0FF0F16BF2CF8022B8CF8002012F47F4FE7
S2144038F0B3D1704711F8012B0CF8012B002AF9D1EF
S214403900704700BF000000000000000000000000FC
S2144039100000000000000000000000000000000062
S2144039200000000000000000000000000000000052
S2144039300000000000000000000000000000000042
S21440394090F800F06DE9024520F007016FF0000C9A
S21440395010F0070491F820F040F049804FF0000442
S2144039606FF00700D1E9002391F840F000F108001D
S21440397082FA4CF2A4FA8CF283FA4CF3A2FA8CF355
S2144039804BBBD1E9022382FA4CF200F10800A4FABC
S2144039908CF283FA4CF3A2FA8CF3E3B9D1E9042310
S2144039A082FA4CF200F10800A4FA8CF283FA4CF347
S2144039B0A2FA8CF37BB9D1E9062301F1200182FA01
S2144039C04CF200F10800A4FA8CF283FA4CF3A2FA07
S2144039D08CF3002BC6D0002A04BF04301A4612BA15
S2144039E0B2FA82F2FDE8024500EBD2007047D1E918
S2144039F0002304F00305C4F100004FEAC50514F0A7
S214403A00040F91F840F00CFA05F562EA05021CBF77
S214403A1063EA050362464FF00004A9E72DE9F0414A
S214403A200F46904601F0FEFE04460D46B8F1000FE4
S214403A3011D0C7F30A53C3F16B03002B0BDD1B05F4
S214403A4003F17F55002405F5401522462B46FFF727
S214403A5013FBBDE8F08120462946BDE8F08100BF53
S214403A602DE9F04F9FB00E46002105921A91002294
S214403A700021CDE902121996834633461A4613F8BA
S214403A80017B2D2F00F2EE80DFE817F02E00EC00D1
S214403A90EC00EC00EC00EC00EC00EC00EC00DB0092
S214403AA0DB00DB00DB00DB00EC00EC00EC00EC00B5
S214403AB0EC00EC00EC00EC00EC00EC00EC00EC0061
S214403AC0EC00EC00EC00EC00EC00EC00DB00EC0062
S214403AD0EC00EC00EC00EC00EC00EC00EC00EC0041
S214403AE0EC004400EC00D800059B4FF000094FF076
S214403AF0000A53B100230693059B1E60069B23B124
S214403B0049460AF1004389469A46484651461FB000
S214403B10BDE8F08F00230693541C19945778002F65
S214403B20E2D0302F00F0A48008944FF0000AA7F1AE
S214403B3030034FF00008092B45462346444619D823
S214403B40082CC8BF08EB880805EB850203F1010383
S214403B5007EB42021993C4BF07EB4807A7F13008AA
S214403B601F78D8BFA2F13005A7F13002092A04F128
S214403B700104E5D95846079301F0B8FAD0F800900A
S214403B80584601F0B3FA0068FFF7DAFE079B024694
S214403B904946184601F0AAFF8146002800F0E28018
S214403BA0002084468646A146652F73D0452F71D0A7
S214403BB00023B9F1000F46D0B9F1100FCCEB030348
S214403BC02846CA460A93A8BF4FF0100AFFF7DEF908
S214403BD0002C08BF4C46BAF1090FCDE9020113DDAF
S214403BE0734B03EBCA0353E91223FFF745FA064625
S214403BF040460F46FFF7CAF902460B46304639465E
S214403C00FFF788F8CDE90201B9F10F0F00F3D8802D
S214403C100A9B002B00F0A38040F35A850A9B162B84
S214403C2000F39784624901EBC301D1E90001DDE965
S214403C300223FFF721FA81468A460DE001230693C8
S214403C406AE719931AE718B9BAF1000F00F0A08294
S214403C504FF000094FF0000A059B002B3FF44EAF93
S214403C60199E49E70023302F144606937FF45CAF35
S214403C706378582B00F04683782B00F0438301345A
S214403C8019942778302FFAD0002FE1D008944FF0BF
S214403C90010A4CE7B9F1000F00F01682199E731C1A
S214403CA0199377782B2F00F06A822D2F00F06182CF
S214403CB000230793A7F13003092B00F21982302F17
S214403CC005D1199B013319931F78302FFAD0A7F1ED
S214403CD03103082B3FF66CAF199B0A9319465A1CC2
S214403CE01992A7F130034F78A7F1300109290CD873
S214403CF00132199203EB830307EB43031778A7F1CE
S214403D0030010929A3F13003F2D90A99521A082A38
S214403D1000F3168444F61F629342A8BF1346079AE0
S214403D20002A3FF446AF5B42B9F1000F7FF444AF40
S214403D3089E719A81F4901F001F900283FF4D4AEDD
S214403D40199B1D49013B19A8199301F0F7F810B9C2
S214403D50199B01331993194B039300230293DDE912
S214403D60029A79E7584601F0C1F90068FFF7E8FD86
S214403D70199A13181993175C002C40F0E881302FDD
S214403D80204606D1013319931F78302F00F10100E9
S214403D90F8D0A7F13103082B40F23B84652F00F0A2
S214403DA08F814FF00009CC464FF0010EFEE600BF73
S214403DB050674000F4654000F86540000000F07F22
S214403DC00A9BCAEB090A9A44BAF1000F40F35F8394
S214403DD01AF00F010AD0B44B03EBC101D1E9000140
S214403DE0DDE90223FFF748F9CDE902013AF00F0674
S214403DF040F026820023079300954B4622460899BA
S214403E00584601F081FA0E90002800F0C0820A9AC7
S214403E100021002AC2F10003A8BF0B460B9322EAFA
S214403E20E2730A930F468A460E9C5846616801F034
S214403E30FBF98046002800F0D0822269023204F165
S214403E400C0192000C3001F055F9DDE902341CA853
S214403E501BA9CDE908341A460190234600915846DE
S214403E6001F06CFD1A90002800F044840121584669
S214403E7001F0E4FA0746002800F0AF821B9B002BB7
S214403E80C0F22A810B9A0A9DD61807991C9C874A2D
S214403E905B1A2344013B9342C4F1360480F2E78028
S214403EA0D21A1F2AA4EB020400F31A81012393407E
S214403EB00D9300230F932544079B3444A6421D448C
S214403EC03346A8BF2346AB42A8BF2B46002B02DD95
S214403ED0E41AED1AF61A0B9BBBB139461A465846F9
S214403EE001F04EFB0746002800F0778201461A9AFA
S214403EF0584601F0ADFA002800F06F820C901A99EF
S214403F00584601F0B7F90C9B1A93002C08DD224660
S214403F101A99584601F084FB1A90002800F0EA836C
S214403F200A9B43B141460A9A584601F029FB80460F
S214403F30002800F05282002D08DD41462A465846A9
S214403F4001F06EFB8046002800F04782002E08DD18
S214403F5039463246584601F063FB0746002800F0D3
S214403F603C8242461A99584601F0D2FB82460028C7
S214403F7000F033820026C368C66039460C9301F0D1
S214403F80A7FBB042C0F2B98300F00A8439465046D7
S214403F9001F030FD00224FF0804304460D46FFF707
S214403FA0E7FA002868D00C9B002B00F0AD80039BFE
S214403FB03F4D0D9699463E4B0F9300243D4E3E4B4B
S214403FC04A4616409E4200F0B881079B33B3B6F18E
S214403FD0D46F23D8DDF83C900D98494630A3D3E9FA
S214403FE00023FFF7C5FAB0B10D984946FFF71CFB12
S214403FF0002800F0D082FEF7C9FF0D900F910C9B71
S214404000002B40F0C3820D9B12930F9B03F100439D
S2144040101393DDE9124505F1D6639D1BDDE90801E2
S21440402001F000FC02460B4620462946FFF724F8DE
S214404030DDE90823FEF76EFECDE902010C46079B3C
S21440404023B91C4B23409E4200F0E8811A995846FB
S21440405001F010F94146584601F00CF939465846E9
S21440406001F008F95146584601F004F9DCE6002311
S2144040700F9301230D931EE7104B2046294600223E
S214404080FEF7FAFF0C9B0D900F91002B37D101F1F4
S214404090004310901193039BDDE9104599468DE748
S2144040A00000C0FFFFFFDF415067400002FCFFFFFB
S2144040B00000F03F0000F07F0000E07F0000E03F9F
S2144040C04FF0000C4FF0010E00285ED1BAF1000F01
S2144040D03FF40AAD8146E1E50A9A0B9ED51AD4E62E
S2144040E0B04AD21A012303FA02F20F920D93E2E687
S2144040F019960023B9F1000F7FF45EADA3E50D9A43
S2144041000F9BCDE91023C6E7DDE90212002940F0F7
S214404110DB80C2F313039146002B40F0DB80002285
S214404120A14B20462946FFF719FA002840F05F8346
S2144041309E4B204629460022FEF79EFF01F1004393
S2144041400D9016900F911793DDE9164536E74846D1
S214404150CC46A146A7F13003092B13D8421C1F4674
S214404160002B40F02D821046199A531C199357780D
S214404170F0E701230793B31C1993B7789AE5002319
S2144041800793F8E74FF0010E0EE54FF0000985E57E
S214404190BEF1000F7FF4A8AC493F252F3FF6A4ACF4
S2144041A001A353F827F000BF333D4000E93A4000F2
S2144041B0E93A4000E93A4000E93A4000E34240002C
S2144041C0E93A4000E93A4000E93A4000E93A40001E
S2144041D0E93A4000E93A4000E93A4000E93A40000E
S2144041E0E93A4000E93A4000E93A4000E93A4000FE
S2144041F0E93A4000E93A4000E93A4000E93A4000EE
S214404200E93A4000E93A4000E93A4000E93A4000DD
S214404210E93A4000E93A4000E93A4000E93A4000CD
S214404220E93A4000E93A4000333D4000E93A400070
S214404230E93A4000E93A4000E93A4000E3424000AB
S214404240B6F59A7F00F3A3803611012EDFF880A1E1
S21440425040F3E582DDE9020100235746984616F012
S214404260010F08F101084FEA660604D0D7E900239B
S214404270FEF702FF0123012E07F10807EFD1002BBE
S21440428040F04083039BA3F1547303930AEBC808A2
S214404290DDE90223D8E90001FEF7EEFE21F00043F7
S2144042A01B0D434A1B059342CDE902016FD8A2F588
S2144042B08012934240F296823E4B0393002307932C
S2144042C04FF0FF33029397E5DDE90212012900F033
S2144042D06681914600230D93334B374D0F93002450
S2144042E06CE619A8354900F029FE00283FF4FCABDF
S2144042F0199B1B78282B00F0D582314B0393002363
S21440430002932CE5069A01921AAB00932D4A1BABFA
S21440431019A9584600F08AFB10F0070605463FF4F8
S21440432097AC062E40F08381631C199300234FF010
S21440433000094FF0000A06938EE4A9F154730393E4
S214404340DDE902231046194601F06CFA02460B4698
S21440435020462946FEF790FEDDE90223FEF7DAFC0A
S21440436021F00043CDE902011B0D174ADDE90801A3
S2144043701B059342CDE9140140F2E6800D4B99426D
S21440438028D00C4B03934FF0FF3302935EE60F4B5F
S2144043900393002222230292DDE9029ACBF80030F2
S2144043A05AE400BFE2FBFFFF0000F03F0000E03FA2
S2144043B00000A07CFFFFEF7F0000F0BF00664000DB
S2144043C00000F8FF30664000FFFF9F7C0000F07F53
S2144043D018684000149B0133D3D1CDF828A01A9812
S2144043E0B14B039300220292DDE9029A2223CBF8D6
S2144043F000300146584600F03DFF4146584600F022
S21440440039FF3946584600F035FF0E99584600F0B9
S21440441031FF0A99584600F02DFF1DE40D9E0F9D72
S21440442030462946FFF7D8F8FEF7C0FD0B46024651
S21440443029463046FEF76CFC0C9B05460E4693B963
S214404440029B83B9C4F313046CB991A3D3E9002348
S214404450FFF784F800283FF4F9ADCDF828A01A9865
S214404460DDE9029AC5E78CA3D3E900232846314606
S214404470FFF774F80028F0D12846314688A3D3E9E0
S2144044800023FFF789F800283FF4E0ADE5E73FF466
S214404490B1ACCAF1000616F00F020AD0834B03EB0C
S2144044A0C203DDE90201D3E90023FEF70FFFCDE9A1
S2144044B0020136113FF49EAC1F2E38DC16F0100376
S2144044C000F0E0816A23002E079313DDDDE9020148
S2144044D0774F0023F20704D5D7E90023FEF7CCFD3B
S2144044E00123761007F10807F4D1002B40F0FC8139
S2144044F0079B9BB1DDE90212C2F30A53C3F16B037B
S214404500002B11460ADD1F2B40F3C4810022342BBA
S214404510029240F3EF814FF05C7303930022002336
S214404520DDE90201FFF710F800283FF465AC2223CE
S214404530CBF800304FF000094FF0000AFFF78CBB75
S21440454044F61F63FFF7EBBB039B03F154740394DD
S21440455075E50A9EC9F125039E423FF731AC534CA0
S214404560C9F10F0904EBC901C9EB0609DDE90223CD
S21440457004EBC904D1E90001FEF77EFDD4E900232F
S214404580FEF77AFD81468A46FFF766BB0D9A0F9B7B
S214404590CDE912233DE5474A0F920D902FE5DDE920
S2144045A002129146002A7FF495AECDF828A0222329
S2144045B0CBF800301A984FF000094FF0000A18E781
S2144045C0012A944418BF484403D188E155008145E8
S2144045D00FD009F1010909F1FF32082A05EB8502DF
S2144045E0F4DDB9F1100FDCBF08EB88084FEA480845
S2144045F0EDE7199A09F10109082812DDB9F1100F03
S214404600D8BF08EB88084FF00000D8BF03EB480837
S214404610ABE5199B0893303F00F1010C1A464FF06A
S214404620010905EB850507EB450500209DE51A9A2F
S2144046303AB135211CA801F007FA58461A9900F0FD
S21440464019FE062E0BD8DFE806F01D371813043780
S2144046501D006FF0004303934FF0FF33029329078A
S2144046607FF57DAB039B43F000430393FFF777BB97
S2144046700D4B039300230293F1E71C9B02931D9B73
S2144046800393ECE7002303930293E8E7AFF300803D
S2144046909535A094FFFFCF3F9535A094FFFFDF3FB1
S2144046A035E5AF350000E03F0000F07F5067400042
S2144046B0086640000000F03F1B9A1D9B1C99029123
S2144046C002F2334223F4801343EA02530393C6E7CD
S2144046D00A9A12F11603FFF673AB8C4BA3EBC20398
S2144046E0DDE90201D3E90023FEF7F0FD81468A4664
S2144046F0FFF7B2BACDF828A072E60C9ECDF828A0F7
S2144047005546DDE9089A7EBBDDE9020160BBC1F390
S21440471013030C4643BB21F000431B0D1B05B3F1AE
S214404720D66F21D96B6913B92B69012B1CDD0A9909
S2144047300122584600F074FF39460A9000F0C8FF40
S214404740002811DD079B002B40F0BE80704B2340B5
S214404750A3F580136FEA13536FEA035303934FF0A6
S214404760FF330293DDE9029A079BBBB1694B159371
S21440477000231493DDE9142348465146FEF77CFC9B
S21440478003460C4681468A46CDE9023431B9029B3F
S21440479023B922231A98CBF800302AE61A9828E63E
S2144047A00C9ECDF828A0DDE9089A4EB3DDE9024517
S2144047B0594BC5F3130199422A4645D00F9B4BB33C
S2144047C0039A1342D0D0DDE90201079A56B3FFF7A9
S2144047D025F902460B4648465146FEF79BFA814667
S2144047E08A46C1E701F154730393FFF703BB4B4B73
S2144047F04B4C0F930023CDE916340C9B0D93A3E44A
S214404800DDE90212C2F313031446002BD6D1002969
S214404810D4D197E70D9B029A1342A5D0D3E74FF029
S21440482000082FE5FFF7FAF802460B464846514681
S214404830FEF76EFA0022002381468A46FEF784FE83
S21440484000287FF4B4AE8FE7079B0299FBB1304B4C
S2144048502B40B3F1D46F1AD81B0DC3F16B034FF046
S214404860FF3000FA03F38B42A8D12E498A423ED04D
S214404870274B134003F58013039300230293DDE98F
S214404880029A71E7002E07933FF720AE46E64FF0B8
S214404890FF33E8E74FF0FF3202FA03F3029A1A407A
S2144048A002923BE619A81CAA1F4900F05FFB0528A8
S2144048B07FF423AD1D9B43F0FF4343F4E003039393
S2144048C01C9B0293FFF74BBA114B2340B3F1D66FB4
S2144048D03FF73EAFB3F15C7F3FF748AF67E64846E9
S2144048E0199A09F1010987E6CDE9020100E601338C
S2144048F0BED174E5203B4FF0FF3202FA03F30B4083
S21440490003930BE6CDE90201BCE400BF50674000CC
S2144049100000F07F00005039FFFF0F000000E03F2E
S2144049200000E0BFFFFFEF7FE0654000024B0A4615
S21440493001461868FFF794B838044020024B13B17C
S214404940024800F005B87047000000005D4940008E
S214404950002301461A46184601F018B938B5074DE7
S214404960074C2C1BA41005D0013C55F8043D984735
S214404970002CF9D1BDE8384001F074BF746840009F
S2144049807068400002694B1193422EDAF0B511F080
S2144049901F0100F1140606EB820206EB830E29D0B7
S2144049A056F823300EF10405AA4223FA01F4C1F169
S2144049B0200C39D900F110072B6803FA0CF3234377
S2144049C047F8043F55F8043BAA4223FA01F4F3D8CB
S2144049D0CEEB0202053A22F003020432324414605F
S2144049E004B10432931B9B1016E00023036100239E
S2144049F043617047724512D900F11004714651F870
S214404A00045B44F8045F8A42F9D86FEA0E03134405
S214404A1023F0030304339B10036113B1F0BD00235E
S214404A20036100234361F0BD3246D8E72DE9F04FDD
S214404A308BB0894603920893059000F057FB0368B5
S214404A40029318461C46FEF77BFFD9F800300090CC
S214404A509A782118302A11F801BC40F0AA81033315
S214404A604FF000081C4613F8012B302A08F10108C5
S214404A70F8D0B34EB35C002B00F0F08023784FF0B4
S214404A80000AF35C5546274623B117F8013FF35C0E
S214404A90002BFAD1009A0299384601F027F80028F0
S214404AA000F092803B78002D00F07281ED1BAA004A
S214404AB00192502B00F09180702B00F08E803D4686
S214404AC0C9F80070BAF1000F40F0B7802B1B013BCD
S214404AD0072B514604DD5B10072B01F10101FADC80
S214404AE0059800F0A1FB03461433A54204900793B3
S214404AF040F2D4819946009B4FF00008C3F1010371
S214404B00474606930FE0202F00F09F803A46043732
S214404B1015F8013CF35C554603F00F039340A5425D
S214404B2048EA030815D915F8013C5B4505F1FF3AFC
S214404B30E9D1069B5344A342E5D31846009A02990E
S214404B40099300F0D3FF099B0028DCD11D46A542FF
S214404B50E9D849F8048B079B049AC3EB09094FEA46
S214404B60A903136140464FEA431900F019FC039B22
S214404B701E68C0EB0900B04200F3E480C0F20A8130
S214404B800027039B019A9B689A4200F397800398FC
S214404B9001994368994280F2B5805D1AAE4200F3AF
S214404BA01081C268022A00F08081032A00F05D81ED
S214404BB0012A00F07E810598049900F05BFB149A68
S214404BC00023136050203DE0002D00F01A813B7812
S214404BD06CE7002301934FF0010A7B782B2B00F003
S214404BE0AC802D2B75D0791C0025F35C54485A1E9A
S214404BF0182A3FF664AF4A78825C501E1828A3F104
S214404C00100301F101010BD811F8010F03EB8303E8
S214404C1002EB4303325C501E1828A3F11003F3D96D
S214404C2005B15B42019A3D461A440F460192C9F8C7
S214404C300070BAF1000F3FF449AFB8F1000F0CBF57
S214404C40062000200BB0BDE8F08FC9F800804FF07A
S214404C50000809F104094246042759E7009D0299D5
S214404C602A46204600F042FF002836D023782746C2
S214404C70502BAED0702BACD0C9F80070DDE7049B4B
S214404C809B689F4280F235813B46049800EB830246
S214404C9001210133022C0361516100F019819F42CA
S214404CA080F2DC8001210498FFF76CFE039B019A9A
S214404CB09B6801329A42019240F3D380059804994A
S214404CC000F0D8FA149A0023A32013600BB0BDE876
S214404CD0F08F0125BB78B91C87E7625DB35C671926
S214404CE0002B6AD0302A3C4604D114F8013F302BC2
S214404CF0FBD0F35CB3FA83FA3D464FEA5A1A4FF0BC
S214404D000108C0E6012467B1039BDB68022B00F074
S214404D108680032B00F08780012B00F0B68044F09D
S214404D201004149B1A46049B1360089B1A46019B6A
S214404D30136020460BB0BDE8F08F0025CAE700BFE1
S214404D4044664000841B2146049800F0A1FE0028DB
S214404D5035D0621E5111079802F01F0350F82110FB
S214404D60012707FA03F30B420AD0BA4240F39B806E
S214404D70A11E049800F08CFE002800F094800327C3
S214404D80019B0498234421460193FFF7FBFDF8E678
S214404D9001958EE6341A04990598224600F040FCA8
S214404DA0019B04901B1B0193034614330793002773
S214404DB0E7E69C1C4FF000085BE6134658E70746BC
S214404DC0DEE76C1E002F4ED124B12146049800F039
S214404DD05FFE07466311079A049852F8232004F0B2
S214404DE01F04012303FA04F41442294618BF47F06F
S214404DF00207FFF7C7FD039B5B680193761B0224FF
S214404E0081E700997B5CF25C7D182F46002A3FF4D0
S214404E104DAE17F8013FF25C002AFAD146E6159BE4
S214404E20C3F101031593159B002B3FF478AF049B09
S214404E30079D1F694FEA870805EB08002B460021AF
S214404E4004E043F8041B98427FF619AF1A68B2F1A3
S214404E50FF3FF6D00132022C1A6039D016F01F06FA
S214404E603DD121245DE70127B4E7159A002A3FF497
S214404E70A2AE08990B60079B049901220A611A604A
S214404E80149B1A4662201160DCE6BA077FF547AFEE
S214404E90079B1B683B43DB07C9D440E7DDF81C9003
S214404EA04FF0000855E602276AE7159A002AE0D038
S214404EB081E6AE427FF47FAE012EDADD711E0498A5
S214404EC000F0E6FD00283FF476AE039B5B68D0E733
S214404ED0039B1B68013B9E4224D0222421E7454485
S214404EE0C6F1200655F8040C00F05AFAB042B8DA7B
S214404EF0D8E6049BDDF8149059684846013100F026
S214404F0093F904990B699A1C054692000C310C30B3
S214404F1000F0F0F80499484600F0ACF904952B6987
S214404F201435B2E6731106F01F0655F82320012308
S214404F30B340134214BF21242224F2E630B404685E
S214404F4008E014F8013FA3F14105192D98BF20331E
S214404F50934208D111F8012B002AF2D101340460A3
S214404F60012030BC7047002030BC70472DE9F04F20
S214404F700B68DFF8749185B0591102EB810113F08C
S214404F801F0301911CBF04310191019C02900393C1
S214404F900023194644F8043C9A469E46029BA4F1D8
S214404FA0040C1D68E046604615F8013F23B319F827
S214404FB00340002C43D1202B5DD8D645F4DD404538
S214404FC013D2072911DCC1F1080189000668C1F136
S214404FD0200B03465F6807FA0BF4344327FA01F6C2
S214404FE01C6043F8046F9845F4D890423AD815F8B8
S214404FF0013F0821002BDAD1BEF1000F3DD04045DD
S21440500001D207295CDD90423BD9134650F8041B79
S21440501043F8041B8445F9D2002143F8041B9C4501
S214405020FBD2019B53F8043C2BB962453AD05CF85E
S214405030043D002BF9D0052005B0BDE8F08F0131C6
S21440504008290EF1010E06DD9042ADD9002340F846
S214405050043C01210438036804F00F0444EA0314B6
S2144050600460A1E70023A0F1040840F8043CF2469F
S2144050704046194698E7292B1BD0042005B0BDE8CA
S214405080F08F039B002BCCD0019C039B54F8041C50
S214405090C3F120034FF0FF3020FA03F30B4044F8EF
S2144050A0043CC1E701230520CCF8003005B0BDE83C
S2144050B0F08F029B01351D60BEF1000F9FD1DCE7EB
S2144050C0C1F108039B000568C3F1200701464E68FE
S2144050D006FA07F42C4326FA03F50C6041F8045F01
S2144050E08845F4D88FE700BF4466400000487047C4
S2144050F03C044020844641EA000313F003036DD18C
S214405100403A41D351F8043B40F8043B51F8043B45
S21440511040F8043B51F8043B40F8043B51F8043B4C
S21440512040F8043B51F8043B40F8043B51F8043B3C
S21440513040F8043B51F8043B40F8043B51F8043B2C
S21440514040F8043B51F8043B40F8043B51F8043B1C
S21440515040F8043B51F8043B40F8043B51F8043B0C
S21440516040F8043B51F8043B40F8043B51F8043BFC
S21440517040F8043B51F8043B40F8043B51F8043BEC
S21440518040F8043B403ABDD2303211D351F8043B8C
S21440519040F8043B51F8043B40F8043B51F8043BCC
S2144051A040F8043B51F8043B40F8043B103AEDD23B
S2144051B00C3205D351F8043B40F8043B043AF9D28C
S2144051C0043208D0D2071CBF11F8013B00F8013B5F
S2144051D001D30B8803806046704700BF082A13D36C
S2144051E08B078DD010F003038AD0C3F10403D21A84
S2144051F0DB071CBF11F8013B00F8013B80D331F8B8
S214405200023B20F8023B7BE7043AD9D3013A11F837
S214405210013B00F8013BF9D20B7803704B784370A2
S2144052208B78837060467047C36C70B505460C46F5
S2144052304BB153F8240080B1026843F82420002381
S2144052400361C36070BD2122042100F0F1FCE864D4
S21440525003460028EDD1002070BD012101FA04F676
S214405260721D2846920000F0E3FC0028F3D044600C
S2144052708660E4E731B1C36C4A6853F822000860A0
S21440528043F82210704700BFF0B50C6983B00D4656
S214405290064601F1140E0027DEF8000081B202FB3C
S2144052A001310B0C000C02FB003389B2013701EBD5
S2144052B00341BC424EF8041B4FEA1343ECDC3BB1BF
S2144052C0AA68944207DA05EB8402013453612C61E4
S2144052D0284603B0F0BD6968019301313046FFF7B8
S2144052E0A3FF2A69023205F10C01074692000C30F2
S2144052F0FFF700FFF26C6968019B52F821002860B6
S21440530042F821503D46DEE72DE9F843234C089D00
S2144053101F46083384FB034EDB17C3EB6E0EBEF10D
S214405320010F06460C46904635DD012300215B0002
S2144053309E4501F10101FADC3046FFF775FF012377
S214405340B8F1090F4561036121DD04F109094D46B5
S214405350444415F8013B0146303B0A223046FFF7ED
S21440536093FFA542F5D109EB0804083C47450CDD00
S214405370C8EB0707274414F8013B0146303B0A2296
S2144053803046FFF781FFA742F5D1BDE8F8830A34DF
S2144053904FF00908EAE70021CEE700BF398EE33830
S2144053A0030C1B04B3B90004102310F07F4F04BF56
S2144053B00002083310F0704F04BF0001043310F0B1
S2144053C0404F04BF80000233002807DB420003D46E
S2144053D0202070470023E8E7581C7047184670475F
S2144053E0036813F0070207D0D90720D49A0720D4C1
S2144053F09B0803600220704799B209B91B0C102223
S21440540013F0FF0F04BF1B0A0832190704BF1B091D
S2144054100432990704BF9B080232D90704D45B08BC
S21440542001D12020704701320360104670470020AB
S21440543070475B0803600120704700BF10B50C46FC
S2144054400121FFF7F1FE01224461026110BD00BF59
S2144054502DE9F04F0D691769BD4283B00C461646DC
S21440546004DA2A4634463D460E461746A368616827
S21440547005EB07089845C8BF0131FFF7D5FE00F198
S214405480140C0CEB8809CC45009005D263460021ED
S21440549043F8041B9945FBD806F1140202EB870A31
S2144054A004F11403524503EB850E54D2CDF8049014
S2144054B0994652F8043B1FFA83FBBBF1000F20D0FD
S2144054C000204F466646054600E01E4657F8044B09
S2144054D03068A1B283B20BFB0131240C000C4B198F
S2144054E00BFB040000EB134099B2334641EA0041FF
S2144054F0BE454FEA104543F8041BE6D8756052F89F
S214405500043C5FEA134B20D0DCF800306746184670
S2144055104D46002100E037462C88000C0BFB04006B
S21440552001449CB23E4644EA014346F8043B786850
S21440553055F8044B83B2240C0BFB043404EB1143A4
S214405540AE454FEA1341E6D87B6092450CF1040C19
S214405550AFD8DDF80490B8F1000F0BDD59F8043CE5
S214405560A9F104091BB105E059F8043D13B9B8F197
S2144055700108F9D10098C0F8108003B0BDE8F08F5C
S21440558012F003032DE9F041144607462ED10E468D
S214405590A4101CD0BD6C95B3E3074FF0000806D4AA
S2144055A0641014D02868A8B10546E307F8D52A4603
S2144055B031463846FFF74CFFB6B17268FB6C641054
S2144055C053F82210316043F822600646EAD130464E
S2144055D0BDE8F0812A4629463846FFF739FF28605D
S2144055E0C0F800800546E0E70646D9E75A1E0B4D50
S2144055F0002355F82220FFF747FE0646C8E701215C
S2144056003846FFF711FE40F2712101220023416126
S21440561002610546B8640360BEE700BF40684000CC
S2144056202DE9F04791460A698B684FEA691404EB06
S214405630020808F101059D420E468246496804DD8F
S2144056405B009D4201F10101FADC5046FFF7ECFD9C
S214405650002C00F1140238DD02EB8403002142F8EE
S214405660041B9342FBD1346906F1140119F01F095B
S21440567001EB840E21D0C9F1200200240F6807FAFE
S21440568009FC4CEA04049C4643F8044B51F8044B8E
S2144056908E4524FA02F4F1D8CCF804400CB108F157
S2144056A00205DAF84C307268013D53F82210056165
S2144056B0316043F82260BDE8F087043B51F8042B84
S2144056C043F8042F8E45F9D8EBE71346CBE700BFE7
S2144056D002690B69D21A12D19B0014301431194456
S2144056E010B4034401E098420BD253F8044D51F8ED
S2144056F0042D9442F7D007D3012010BC70471046C3
S2144057007047002010BC70474FF0FF30F5E700BFF1
S2144057102DE9F8430B690F4611695B1A002B90463A
S21440572017D1890007F1140208F1140553182944CB
S21440573001E09A425ED253F8046D51F8044DA642F9
S214405740F7D060D23B46144647464FF0010998468C
S21440575006E05DDB07F1140502F114044FF0000982
S2144057607968FFF761FDD8F810303E69C0F80C90B4
S21440577004EB830CA64605EB860700F114040023D1
S2144057805EF8041B55F8048B8AB213FA88F3090CAA
S2144057909A1AC1EB184303EB224392B242EA034201
S2144057A0F44544F8042B4FEA2343E9D8AF4217D9CF
S2144057B0A446294651F804EB13FA8EF2131403EB71
S2144057C01E4392B242EA03428F424CF8042B4FEA01
S2144057D02343EFD8ED433D4425F0030504352C44E0
S2144057E0043C22B954F8043D013E002BFAD0066131
S2144057F0BDE8F8830021FFF717FD01220023026170
S2144058004361BDE8F8832C464FF000091546A7E7EC
S2144058103B4607F1140408F1140547464FF00109CA
S21440582098469DE70F4B0B40A3F15073002B02DDCB
S2144058300020194670475B421B15132B0BDD143BAB
S2144058401E2BDDBFC3F11F03012202FA03F301231F
S2144058500021184670474FF40022002042FA03F118
S214405860704700BF0000F07F2DE9F041066900F167
S214405870140808EB860656F8047C3846FFF790FD79
S214405880C0F120030A280B60A6F104031ADC9845F1
S21440589038BF56F8083CC0F10B0227FA02F138BF71
S2144058A023FA02F200F1150341F07F5528BF00228B
S2144058B007FA03F345F4401543EA02042046294616
