:020000040040BA
:10000000880E4020A10140009D0140009D0140005C
:100010009D0140009D0140009D0140000000000046
:100020000000000000000000000000009D014000F2
:100030009D014000000000009D014000551A400055
:100040009D0140009D0140009D0140009D01400038
:100050009D0140009D0140009D014000290340009A
:100060009D0140000000000045244000592440004C
:10007000000000009D0140009D0140009D014000E6
:100080006D244000000000009D0140009D014000E3
:100090009D0140009D0140009D0140009D014000E8
:1000A0009D0140009D014000000000000000000094
:1000B000000000009D0140009D0140009D014000A6
:1000C0009D0140009D0140009D0140009D014000B8
:1000D000000000009D014000000000009D01400064
:1000E0009D0140009D0140009D0140009D01400098
:1000F0009D0140009D0140009D0140000000000066
:1001000000000000000000009D0140009D01400033
:100110009D01400000000000000000000000000001
:100120009D0140009D0140009D0140009D01400057
:100130009D01400000000000000000009D01400003
:1001400010B5054C237833B9044B13B10448AFF311
:1001500000800123237010BD3804402000000000FF
:1001600064474000084B10B51BB108490848AFF37D
:1001700000800848036803B910BD074B002BFBD073
:10018000BDE81040184700BF000000003C044020BC
:10019000644740006447400000000000FEE700BFE5
:1001A00008B5194B194A9A4203D0194B164A9A427C
:1001B00004D3184B184A9A420FD31AE01249174B2E
:1001C0005B1A23F003030433104A134452F8040B60
:1001D00041F8040B9A42F9D1EBE7114B114AD21ABC
:1001E00022F003021A44043B002143F8041B93420B
:1001F000FBD10D4A0D4B23F07F0393600C4B9847C6
:100200000C4B9847FEE700BF0000402064474000C9
:10021000380440208808402038044020370440201B
:100220003C0440208B08402000ED00E0000040002E
:1002300011424000F1114000F0B597B0054630235F
:10024000ADF84430ADF83030ADF81C30ADF80830C2
:1002500003788DF8043000248DF8054006462F4FB2
:1002600000E0144613B3632C20DC33788DF804309F
:1002700001A911A8B847621C16F8013F202BF0D144
:1002800002342B5D2E19254F00E0144673B1632C08
:100290000CDC33788DF8043001A90CA8B847621C37
:1002A00016F8013F202BF0D102342B5D2E191B4F85
:1002B00000E01446F3B1632C1CDC33788DF8043075
:1002C00001A907A8B847621C16F8013F202BF0D1FE
:1002D00002342B5D2544114E63B1632C0ADC2B786C
:1002E0008DF8043001A902A8B047013415F8013F88
:1002F000202BF1D111A80A4DA8470A4CC4E90001EE
:100300000CA8A847C4E9020107A8A847C4E904014A
:1003100002A8A847C4E9060117B0F0BD7542400025
:10032000ED1A4000580440202DE9F0472B4BD3F83C
:10033000149019F0010F3DD01E46294D294C04F1AF
:100340002008294FDFF8A8A03046A84790B34146BF
:10035000606AB847E36BFF2B01D90023E36394F88D
:1003600020307B2B02D07D2B04D014E0012384F8B5
:100370004030E9E7E36B2344002283F84420E26342
:1003800094F84030002BDFD084F8402004F1440082
:10039000164B9847D8E794F84020002AD4D0A3F110
:1003A0002002D2B2192ACFD82AFA02F212F0010F93
:1003B0000AD1C9E719F0600F0DD0084A136843F459
:1003C00080731360BDE8F087E26BA11881F84430B8
:1003D0000132E263B8E7BDE8F08700BF00080E40D5
:1003E000792A4000580440209521400039024000FD
:1003F0000140FF032DE9F8430446244DA84704F1CA
:100400002800A84700220023C4E92E23C4E9302392
:10041000C4E93223C4E93423C4E93623C4E93823C8
:10042000C4E93A23C4E93C23C4E93E23682184F8A3
:10043000B01004F580714FF000084FF08049C1E919
:10044000008904F584710026114FC1E9006704F5A5
:100450008871C1E90223C1E90423C1E90623C1E986
:100460000823C1E90A23C1E90C23C1E90E23C1E92C
:100470001023C1E91223692384F81031C1E91489DA
:10048000C1E916672046BDE8F88300BF2D1C400077
:1004900000406F40000000002DE9F04F8FB0AE4CDF
:1004A000A0470390A047AD4BD3F8443103F5FA625F
:1004B0009042C0F0A183039AD01AA94B9847A94E45
:1004C0009FA3D3E90023B047CDE90401A34C132136
:1004D00094F8F801A44DA8470746122194F8F801B2
:1004E000A84704F5A47940EA0720DFF8848200B227
:1004F000C047A2469D4FFAE99223B84792A3D3E999
:100500000023B047C9E92E01152194F8F801A84746
:100510008346142194F8F801A84740EA0B2000B262
:10052000C047DAE90023B84787A3D3E90023B047DF
:10053000C9E93001172194F8F801A847834616212C
:1005400094F8F801A84740EA0B2000B2C047DAE966
:100550000023B8477CA3D3E90023B047C9E932019F
:100560000D2194F8F801A84782460C2194F8F8016F
:10057000A84740EA0A2000B2C047A246FAE99423FD
:10058000B84771A3D3E90023B047C9E934010F216B
:1005900094F8F801A84783460E2194F8F801A8477B
:1005A00040EA0B2000B2C047DAE90023B84766A34F
:1005B000D3E90023B047C9E93601112194F8F801C5
:1005C000A8478346102194F8F801A84740EA0B2079
:1005D00000B2C047DAE90023B8475BA3D3E90023A0
:1005E000B047C9E93801132194F85802A847814659
:1005F000122194F85802A84740EA092000B2C047E7
:10060000A146F9E9AA23B8474FA3D3E90023B0478D
:100610002346E3E998010093152194F85802A8476E
:100620008246142194F85802A84704F51A7B40EA40
:100630000A2000B2C047D9E90023B84742A3D3E952
:100640000023B047CBE90001172194F85802A847CE
:100650008246162194F85802A84704F51C7B40EA0C
:100660000A2000B2C047D9E90023B84736A3D3E92E
:100670000023B047CBE900010D2194F85802A847A8
:1006800081460C2194F85802A84704F51E7A40EAE6
:10069000092000B2C047A146F9E9AC23B8472AA314
:1006A000D3E90023B047CAE900010F2194F85802AA
:1006B000A84782460E2194F85802A84704F5207BEB
:1006C00040EA0A2000B2C047D9E90023B8471EA378
:1006D000D3E90023B047CBE90001112194F8580277
:1006E000A8478246102194F85802A84740EA0A20F9
:1006F00000B2C047D9E90023B84713A3D3E90023C8
:10070000B04706460F4604F52274C4E90067009B13
:10071000D3E9004500224FF0804320462946DFF808
:100720005480C047002837D1DFF840A008A3D3E9A0
:100730000023ABF59C71D1E92E01D0471CE000BF2E
:100740000000000080842E4100000000C0FFDF4058
:100750009A9999999999E93F791A4000580440204B
:10076000CD3540000D39400025234000B93640000A
:10077000ED354000D93B400080468946A0A3D3E92F
:10078000002320462946D04702460B4640464946AC
:10079000A14CA04704460D46A04B03F5A472C2E944
:1007A000144503F51A73D3E900AB00224FF08043E0
:1007B000504659469A4CA047B8B99A4C92A3D3E9EF
:1007C00000239949D1E93001A047804689468CA38E
:1007D000D3E9002350465946A04702460B464046FF
:1007E00049468D4CA04782468B468C4B03F5A4723C
:1007F000C2E916AB03F51C73D3E900341846214651
:1008000000224FF08043CDE90001854CA047B8B9E4
:10081000844C7DA3D3E900238349D1E93201A04769
:100820008046894676A3D3E90023DDE90001A0478D
:1008300002460B4640464946774CA047CDE90001A9
:10084000764B03F5A472DDE90001C2E9180103F556
:100850001E73D3E900450022744B20462946DFF879
:10086000C081C047C0B9DFF8BC8167A3D3E90023CA
:100870006D49D1E93401C047CDE9060160A3D3E950
:10088000002320462946C04702460B46DDE9060103
:10089000614CA04704460D46604B03F5A472C2E9C3
:1008A0001A4503F52073D3E9004500225F4B20462B
:1008B0002946DFF86C81C047C0B9DFF8688152A3D0
:1008C000D3E900235849D1E93601C047CDE90601F3
:1008D0004BA3D3E9002320462946C04702460B46D6
:1008E000DDE906014C4CA04704460D464E4BC3E9DA
:1008F0001C4500224D4B30463946494CA047B8B9FB
:10090000484C41A3D3E900234749D1E93801A04726
:10091000804689463AA3D3E9002330463946A047AA
:1009200002460B46404649463B4CA04706460F460A
:100930003D4CC4E91E67DDE90023504659463C4D55
:10094000A847384D32A3D3E90023A847CDE90001D9
:10095000236D0893666D06F10046D4E91689D4E943
:1009600018AB42464B4640464946A847CDE90601EA
:10097000294F42464B4640464946A847804689464D
:1009800052465B4650465946A84702460B464046EB
:100990004946B847274B984702460B4608983146C8
:1009A000254EB047254B984719A3D3E90023A84704
:1009B000CDE90601D4E91AAB266F676F0022204B00
:1009C000DDE900011F4CA04740B100221E4B164933
:1009D000D1E92801124CA047002838D100221A4B37
:1009E000DDE900010E4CA047002844D00022144B42
:1009F0000D49D1E92801134CA04727E0AFF300804F
:100A00009A9999999999C93F9A9999999999E93F88
:100A1000F8C1631ADCA54C4055334000580440200F
:100A2000D93B4000B9364000A005402000406F404F
:100A3000752F4000792F40000D394000312C4000C7
:100A4000008056C09D3B40000080564098B1DDE9D3
:100A50000089404649466E4B98476E4C01462046F9
:100A60006D4B984742464B46C4E92423C4E92823EA
:100A7000C4E9202316E0664CDDE90401A047804666
:100A800050465946A0470546DDE90001A047614CA4
:100A900043462A4601462046604DA847604B98478A
:100AA000C4E928015B4BD3E928015E4B9847002835
:100AB000B8BF40425A28C8BF07F10047544CDDE98F
:100AC0000401A047804630463946A0470546DDE987
:100AD0000601A047DFF864E10EF5A47443462A46F8
:100AE00001460EF5B8704D4DA8474D4B984702464C
:100AF0000B46CDE90C23C4E92A23DFF84481524692
:100B00005B46DDE9049A48465146C047CDE90801F5
:100B1000454DD4E92023A84702460B46CDE90423DE
:100B2000C4E9202332463B4648465146C047CDE9FA
:100B30000A01D4E92223A84782468B46C4E922ABA6
:100B4000D4E92423DDE90801A8472DA3D3E9002334
:100B5000C04706460F462CA3D3E90023DDE9000178
:100B6000C04702460B4630463946A847C4E924012F
:100B7000D4E92623DDE90A01A84721A3D3E900230C
:100B8000C04706460F4620A3D3E90023DDE906014E
:100B9000C04702460B4630463946A847C4E92601FD
:100BA0000022224BDDE9045628463146204CA0475E
:100BB00030B900221F4B284631461F4CA04720B1B8
:100BC0001449D1E92823C1E920230022174B5046BC
:100BD0005946174CA04730B90022164B504659468B
:100BE000154CA04720B10B4BDDE90C12C3E92212D2
:100BF000124B039AC3F844210FB0BDE8F08F00BF39
:100C0000C3F5285C8FC2ED3FEC51B81E85EBB13FB8
:100C1000A93C4000A0054020511D4000551C40004B
:100C200011364000193C400055334000008066C03A
:100C30009D3B400000806640D93B40005804402066
:100C4000B936400070B5144BD3E902450022134B6E
:100C500020462946124EB04748B10022114B20468B
:100C60002946114EB04710B1104BC3E900450A4B5D
:100C7000D3E904450022094B20462946084EB047D7
:100C800048B10022074B20462946074EB04710B115
:100C9000074BC3E9004570BD5804402000003EC02A
:100CA000D93B400000003E409D3B400010074020E3
:100CB000180740202DE9F04E654B9847654BD3F857
:100CC000C822654B13449842C0F0C080614C634910
:100CD000606A634DA8476349606AA8476249606AD1
:100CE000A847D4F8D072D4F8D4624FF060425F4B7A
:100CF000384631465E4CA04720B15E49554B586A94
:100D0000A84740E04FF060425B4B384631465B4CB1
:100D1000A04728B157494F4B586A514B984732E08A
:100D20000022002338463146544CA04730B1544984
:100D3000484B586A4A4B984706F100464FF00A095B
:100D400000205049504C4FF0000ADFF854B1524691
:100D50005B46A04709F1FF3313F0FF09F7D13A468C
:100D600033464A4CA0474A4B98473A4C04F1280571
:100D700001462846474B98472946606A384DA847A0
:100D80004549606AA847334C3649606A344DA847E4
:100D90004249606AA847D4F8D872D4F8DC624FF0B0
:100DA0006042324B38463146314CA04720B1314980
:100DB000284B586AA84740E04FF060422E4B384617
:100DC00031462E4CA04728B12A49224B586A244B61
:100DD000984732E00022002338463146274CA0478E
:100DE00030B127491B4B586A1D4B984706F1004606
:100DF0004FF00A0900202349234C4FF0000ADFF886
:100E0000A0B052465B46A04709F1FF3313F0FF093B
:100E1000F7D13A4633461D4CA0471D4B98470D4C21
:100E200004F12805014628461A4B98472946606A6E
:100E30000B4DA8471849606AA847064C0949606AE3
:100E4000074B9847024B9847C4F8C802BDE8F08E9C
:100E5000791A40005804402040420F0048454000A5
:100E60007D2240005C45400060454000FFFFEF41AF
:100E7000D93B400070454000FFFFEFC19D3B400063
:100E8000584540000000E03F0D3940005533400018
:100E9000693C4000851A4000744540007845400098
:100EA000000024402DE9F04F8BB0884B9847054651
:100EB000874BD3F8E042041B864B984741F28733B7
:100EC0009C4240F20081824C04F53473D3E9002344
:100ED00017469846CDE9007804F53673D3E9002328
:100EE00091469A46CDE9029A04F52E717A4E3A4619
:100EF0004346D1E90001B047CDE9040104F5307162
:100F00004A465346D1E90001B047CDE9060104F550
:100F10003A73D3E90067A046DFF8DCA132463B46CE
:100F2000DDE90401D047DFF8D491F8E9BC23C847D4
:100F300002460B46CDE90823C8E9002332463B466A
:100F4000DDE90601D047F4E9BE23C84706460F464F
:100F5000C4E900670022614BDDE90801604CA0474D
:100F600028B100205D495F4BC3E900010BE000227E
:100F70005D4BDDE908015D4CA04720B100205A49D6
:100F8000584BC3E900010022544B30463946544CBB
:100F9000A04728B100205149554BC3E900010BE09F
:100FA0000022514B30463946504CA04720B100201A
:100FB0004D494F4BC3E90001454C04F54073D3E95B
:100FC0000023CDE9082304F53C76DFF83081DDE924
:100FD000040102460B46C047D6E90023C047064637
:100FE0000F4604F54273DFF8F0A0D3E90023DDE9F2
:100FF0000001D047DFF800B1DDE90823D8470246F9
:101000000B4630463946D04706460F4604F53E7932
:10101000DDE9060102460B46C047D9E90023C04777
:101020008046894604F54474D4E90023DDE90201D1
:10103000D047DDE90823D84702460B4640464946DB
:10104000D047804689460022244B30463946244CFE
:10105000A04748B90022244B30463946234CA047CC
:1010600020B10026204F01E000261C4F214BC3E990
:1010700000670022194B40464946194CA04758B911
:101080000022194B40464946184CA04740B14FF04A
:101090000008DFF8549003E04FF00008DFF83C90C0
:1010A0000B4B03F54872C2E9008903F54272DDE992
:1010B0000001C2E9000103F54472DDE90201C2E961
:1010C0000001C3F8E0520BB0BDE8F08F791A400080
:1010D00058044020450C4000513340000000594066
:1010E000D93B400048074020000059C09D3B4000CC
:1010F0005007402070074020B9364000553340006B
:101100002DE9F04F85B0324CD4F818A3D4F81C93D5
:1011100004F54873D3E90023D4E90001CDE90001C7
:10112000DFF8C0B0CDE90223504609F10041D847AD
:10113000DFF8B480C047274FB847274DDDE90023CB
:10114000A84700220023A847244EB047C4F828032C
:1011500052464B46DDE90201D847C047B847DDE9B2
:101160000023A847B047C4F82C03DDE9022350460A
:101170004946A847C047B847DDE90023A8470022F1
:101180000023A847B047C4F83003DDE902235046E6
:101190004946D847C047B847DDE90023A847B047CC
:1011A0000146D4F834030E4DA847D4F82813D4F8D8
:1011B0003803A847D4F82C13D4F83C03A847D4F834
:1011C0003013D4F84003A84705B0BDE8F08F00BF46
:1011D00058044020ED35400055334000693C400044
:1011E000E520400051334000193C40000000000061
:1011F0002DE9F04F87B0224B9847224B98470A20A1
:10120000214CA0470B20A0471020A0471F4AD2F82E
:10121000143143F03003C2F814311D4B40F22B124D
:101220005A60E0211B4A82F8231000249C600722A8
:101230001A60F0338022C3F88021202183F807133D
:101240001A6061211448154B9847154B586A154B85
:1012500098472046144B984710F0FF0F2CD00746B4
:101260000F4C1249606A124DA84704F12806F9B2E2
:101270003046104B98473146606AA847FEE700BFEA
:1012800085234000A92A4000D5274000008008405F
:1012900010E000E000ED00E000080E40752A40007C
:1012A0005804402039214000A122400088454000D8
:1012B0007D224000851A4000AD4EAE49706AAE4CAA
:1012C000A047AE49706AA047AD4B98471F226D21D9
:1012D00096F85802AB4DA847DFF8C8824046AA4F9F
:1012E000B847B6227E2196F85802A8474046B8472C
:1012F0007F2196F85802A54CA0474046B8471122D6
:101300007E2196F85802A8474046B84715227E210C
:1013100096F85802A8474046B8471F226D2196F814
:10132000F801A8474046B847B6227E2196F8F80152
:10133000A8474046B8477F2196F8F801A0474046A5
:10134000B84711227E2196F8F801A8474046B847D1
:1013500015227E2196F8F801A8474046B84706F5C1
:10136000A479B24600224FF08043EAE99223032297
:10137000412196F8F801A847B3460022844BEBE9D7
:1013800094230322432196F8F801A847314600220E
:10139000804BE1E9AA2300910822412196F85802E6
:1013A000A847314600227C4BE1E9AC23029101229F
:1013B000432196F85802A847132196F8F801A04750
:1013C0000546122196F8F801A04740EA0520DFF80B
:1013D000D88100B2C047714FDAE90023B847704D99
:1013E00061A3D3E90023A847C9E92E01152196F886
:1013F000F801A0470490142196F8F801A047049939
:1014000040EA012000B2C047DAE90023B84756A3FA
:10141000D3E90023A847C9E93001172196F8F8015C
:10142000A0470490162196F8F801A047049940EAD5
:10143000012000B2C047DAE90023B8474AA3D3E944
:101440000023A847C9E932010D2196F8F801A04709
:1014500082460C2196F8F801A04740EA0A2000B223
:10146000C047DBE90023B8473FA3D3E90023A847DF
:10147000C9E934010F2196F8F801A04782460E21F0
:1014800096F8F801A04740EA0A2000B2C047DBE91D
:101490000023B84734A3D3E90023A847C9E936019C
:1014A000112196F8F801A0478246102196F8F8011C
:1014B000A04740EA0A2000B2C047DBE90023B84752
:1014C00029A3D3E90023A847C9E93801132196F8D5
:1014D0005802A0478246122196F85802A047B1460A
:1014E00040EA0A2000B2C047009BD3E90023B84776
:1014F0001DA3D3E90023A847E9E99801152196F82F
:101500005802A0478246142196F85802A04706F5D3
:101510001A7B40EA0A2000B2C047009BD3E90023AF
:10152000B84711A3D3E90023A847CBE9000117214D
:1015300096F85802A0478246162196F85802A0470E
:1015400006F51C7B40EA0A2000B2C047009BD3E9A5
:101550000023B84704A3D3E90023A847CBE900013F
:101560000D2196F8580221E000000000C0FFDF4086
:1015700058044020984540007D2240005C454000D2
:10158000791A400059234000651A40002523400085
:1015900000406F400000204000408F40B9364000BE
:1015A0000D394000A0860100ED354000A04782467D
:1015B0000C2196F85802A04706F51E7B40EA0A2047
:1015C00000B2C047029BD3E90023B847AAA3D3E9DE
:1015D0000023A847CBE900010F2196F85802A04745
:1015E00082460E2196F85802A04706F5207B40EA75
:1015F0000A2000B2C047029BD3E90023B8479EA34C
:10160000D3E90023A847CBE90001112196F858023D
:10161000A0478246102196F85802A04740EA0A20C7
:1016200000B2C047029BD3E90023B84792A3D3E995
:101630000023A84704460D4606F52276C6E9004574
:10164000D9E9006700224FF0804330463946DFF881
:101650005082C047C8B9DFF84CA289A3D3E9002360
:10166000ABF59C71D1E92E01D0478046894686A30F
:10167000D3E9002330463946D04702460B46404660
:101680004946854EB04706460F46844B03F5A47283
:10169000C2E9146703F51A73D3E9002392469B4607
:1016A000CDE900AB00224FF08043504659467C4EB6
:1016B000B047B8B97B4E72A3D3E900237A49D1E988
:1016C0003001B047804689466FA3D3E900235046D6
:1016D0005946B04702460B46404649466E4EB04713
:1016E000CDE900016D4B03F5A472DDE90001C2E90B
:1016F000160103F51C73D3E9002392469B46CDE9FE
:1017000002AB00224FF0804350465946644EB0472A
:10171000B8B9644E5AA3D3E900236349D1E9320131
:10172000B0478046894658A3D3E90023504659461E
:10173000B04702460B4640464946574EB047CDE9B2
:101740000201564B03F5A472DDE90201C2E918015A
:1017500003F51E73D3E900670022544B3046394627
:10176000DFF83C81C047C0B9DFF838A144A3D3E912
:1017700000234D49D1E93401D0478046894642A330
:10178000D3E9002330463946D04702460B4640464F
:101790004946414EB04706460F46404B03F5A472FA
:1017A000C2E91A6703F52073D3E9006700223F4BB3
:1017B00030463946DFF8E880C047C0B9DFF8E4A01A
:1017C0002FA3D3E900233849D1E93601D047804619
:1017D00089462DA3D3E9002330463946D047024637
:1017E0000B46404649462C4EB04706460F462E4B08
:1017F000C3E91C6700222D4B20462946284EB047DE
:10180000B8B9284E1EA3D3E900232749D1E93801EE
:10181000B047804689461CA3D3E9002320462946C9
:10182000B04702460B46404649461B4CA04704467B
:101830000D461A4F07F5A476C6E91E45DDE90223D9
:10184000DDE900011A4CA047DFF858A010A3D3E946
:101850000023D04780468946D7F898310493D7F8BB
:101860009C3103F100420592D6E91645D6E91812DB
:1018700020E000BFAFF3008000000000C0FFDF40A9
:101880009A9999999999E93F9A9999999999C93FFA
:10189000F8C1631ADCA54C40553340005804402081
:1018A000D93B4000B9364000A005402000406F40C1
:1018B000752F4000CDE9001222462B4620462946CE
:1018C000D047CDE90201DFF824B122462B4620465D
:1018D0002946D04704460D46DDE9000102460B4685
:1018E000D04702460B4620462946D847324B9847F8
:1018F00002460B4604980599304CA047304B984758
:101900002BA3D3E90023D04704460D46DFF8E0B00F
:1019100040464946D84701463046DFF8D8A0D04770
:1019200020462946D847014607F5B870D047C6E992
:101930002089C6E92245C6E92489C6E92645214809
:10194000214B98472149786A214CA0472149786A60
:10195000A047214D3C46DFF8A090DFF8A0801F4F44
:1019600041F28836A847D4F8443333449842F9D337
:10197000A847C84704F5347204F5A473D3E92801D5
:10198000C2E9000104F53672D3E92A01C2E9000177
:10199000C047134B9847134B9847A847A847C4F82C
:1019A00044033846104B9847DAE700BFAFF3008096
:1019B000F8C1631ADCA54C40792F40000D39400076
:1019C000312C4000A0860100651A4000A44540006B
:1019D0007D2240005C454000791A400050180E40BE
:1019E000A50E400001114000911F400055334000FA
:1019F000A93C4000511D400099044000B50C400036
:101A000038B5114C002363620120C4F834030F4D34
:101A1000A8470220C4F83803A8470320C4F83C03B1
:101A2000A8470420C4F84003A84704F5A470084B55
:101A3000984704F53A7100220023C1E9002304F518
:101A40004074C4E9002338BD58044020A51F40005D
:101A5000F5034000024A136801331360704700BF6A
:101A6000A8074020034B19681A4613685B1A834283
:101A7000FBD37047A8074020014B1868704700BF90
:101A8000A8074020F0B54FEAE17E01EBE17181EA61
:101A90000E01451E2C460022134F0132A7FB0163A5
:101AA000DB0803EB8306A1EB4601303104F8011F8C
:101AB0001946002BF1D12D2383540EF0010313445A
:101AC000C2180021C154013B0CD0284615F8014F23
:101AD00012F8016C00F8016F02F8014D0131013B71
:101AE0009942F3D3F0BD00BFCDCCCCCC2DE9F04F63
:101AF00085B00090461E0024454F16F8015F284629
:101B0000B84708B10134F8E72D2D04D02B2D07D1AB
:101B10000123039302E04FF0FF330393013401E00C
:101B200001230393009A02EB0408155DA5F130032D
:101B3000092B56D800260027DFF8E490DFF8DCA058
:101B4000DFF8E4B00022334B30463946C84706463A
:101B50000F46A5F13000D04732463B46D8470646EF
:101B60000F46013418F8015FA5F13003092BE9D9BC
:101B700039E0009A134623445D78A5F13003092B20
:101B80002AD80134134623441C460022224BCDE9B7
:101B90000023DFF88C80DFF88490DFF88CA000222F
:101BA0001C4B30463946C04706460F46A5F130006B
:101BB000C84732463B46D04706460F460022154BE3
:101BC000DDE90001C047CDE9000114F8015FA5F18E
:101BD0003003092BE3D90CE000230F4CCDE900348E
:101BE00007E0002600272E2DC3D000230A4CCDE9A4
:101BF00000340398094B984732463B46084CA047AF
:101C0000DDE90023074CA04705B0BDE8F08F00BF19
:101C100061424000000024400000F03FED354000EC
:101C2000B93640000D39400055334000064A026085
:101C3000064A4260064A82600022C26002618261F6
:101C4000C2610262426270476F12833AA69B443BB4
:101C50008FC2F53C2DE9F04F87B004460491019303
:101C6000D0F81080364D41461046A8476061354E89
:101C70000199B047344FE168B8470290D4F82490F6
:101C800049460198B0470390D4F81CB0D4F820A07E
:101C90005946A8475146A8472168B8470199B04717
:101CA000A169B847009003995846A847834603990D
:101CB0005046A847039061680198B0474946B84725
:101CC0000590A1680098B8478246DFF880900146E9
:101CD0000098C847019051460398C8478146029929
:101CE0000498A847049001460198B0470299B84764
:101CF0008246E06004994846B0474146B8472061B3
:101D000001990098B04701460098A847A061019941
:101D10005846B04701465846A847E06149460098F2
:101D2000B04701460398A847206249465846B04745
:101D300001460598A8476062504607B0BDE8F08F9D
:101D4000513D4000653F4000553D4000CD404000C2
:101D5000C1607047284B994249D8A3F57A539942FC
:101D60002BD910B4254CA4FB0234A40B033C244B08
:101D70000B449B00B2FBF3F2033AFF2C07D900237C
:101D800001336408FF2C03D9062BF9D900E00023A6
:101D9000FF2A07D9062B05D801335208FF2A01D99B
:101DA000062BF9D9120292B21B0403F4E0231A4362
:101DB000E4B22243026100201BE04900B2FBF1F2D1
:101DC000033AFF2A07D9002301335208FF2A03D917
:101DD000062BF9D900E00023110289B21B0403F499
:101DE000E0230B43D2B21A43026100207047012066
:101DF000704710BC704700BF801A0600F1197605C5
:101E00000012FD3F08B54FF0FF328262026A802265
:101E10000260026B0822026020220260042202603B
:101E20000A684968034B9847012814BF0020012025
:101E300008BD00BF551D400070B4CC68002C48D0D0
:101E400002468D68002646604B681B0203F440730F
:101E500043F480500B7C1B0403F4FE0303435360E4
:101E6000D660486858B10B78012802DD4E7846EA02
:101E70000323022804DD897841EA032300E00023DC
:101E8000D36001231360022614E0136A13F4807FE9
:101E900021D1013921D0012C04D1166013F0020F99
:101EA0001FD1F2E713F0020F0BD0136B05F8013BC3
:101EB000013C08D0136A13F4807010D143F69821C6
:101EC000E9E7002CE1D1136A13F0010FFBD0136A8C
:101ED0000AE0012008E0052006E0092004E00520D2
:101EE00002E0136B2B70EEE770BC7047CA68002AE3
:101EF00045D070B40346886800265E600C7C2404DC
:101F000004F4FE054C68240204F440742C435C6025
:101F1000DE604D685DB10C78012D02DD4E7846EA39
:101F20000424022D04DD897841EA042400E0002421
:101F3000DC600EE0196A11F4807F22D111F0040FE9
:101F400002D1002AF6D10CE010F8011B5963013AC6
:101F500007D0196A11F4807F15D111F0040FE9D070
:101F6000F2E71A6A12F480700FD112F0040FF8D061
:101F700002221A601A6A12F0010FFBD006E001205B
:101F80007047052002E0052000E0052070BC704786
:101F9000024B984201D1024A1A60704750180E4015
:101FA000010000A530B585B00138032800F2848017
:101FB000DFE800F0021A324B404B0B225A6000243B
:101FC000DC753F4B01221A66C3F890205A655A62AD
:101FD000C3F88020196F21F001011967596F21F0B2
:101FE000010159675A6047E0344B0B225A600124C3
:101FF000DC75334B04221A66C3F890205A655A6286
:10200000C3F88020196F21F004011967596F21F07E
:10201000040159675A602FE0284B0C225A600122B4
:10202000DA75274B4FF400521A66C3F890205A65B0
:102030005A62C3F88020196F11431967596F21F450
:10204000005159675A60022416E01C4B0C225A605A
:102050000122DA751A4B80221A66C3F890205A655D
:102060005A62C3F88020196F11431967596F21F024
:10207000800159675A6003241F20124B9847124D64
:1020800021462846114B9847114B01930293114B5F
:10209000039301A92846104B984708494FF47A73D7
:1020A0000B610023CB600C600B8128460B4B9847DB
:1020B000214628460A4B984705B030BDC807402046
:1020C000000E0E40D527400000000240392A400093
:1020D000801A060000A3E1117D284000C9284000B5
:1020E0002D2A400070B5013803281AD8DFE800F027
:1020F00008020406012504E0022502E0032500E0B1
:1021000000250C46074E29463046074B984707499D
:10211000CC600D603046064B984729463046054B4B
:10212000984770BD00000240392A4000C80740208F
:10213000C92840002D2A400030B585B00F4B0193CF
:102140004FF4E13302934FF400630393A0B90720E7
:102150000B4B98470B4D4FF480624FF000612846BF
:10216000094CA0474FF400724FF000612846A04789
:1021700001A90648064B984705B030BD80D1F0084C
:10218000D5274000000E0E408124400000080E407C
:10219000452A400070B50C46032822D8DFE800F03D
:1021A000020A121A0F4E104D21463046A847002849
:1021B000FAD170BD0D4E0C4D21463046A84700287F
:1021C000FAD170BD0A4E084D21463046A847002876
:1021D000FAD170BD074E044D21463046A84700286D
:1021E000FAD170BD00080E40952A4000000A0E404A
:1021F000001A0E40001C0E4070B50C46032822D871
:10220000DFE800F0020A121A0F4E104D2146304648
:10221000A8470028FAD170BD0D4E0C4D214630461E
:10222000A8470028FAD170BD0A4E084D2146304615
:10223000A8470028FAD170BD074E044D214630460C
:10224000A8470028FAD170BD00080E40812A40003E
:10225000000A0E40001A0E40001C0E405AB1F8B59C
:1022600006460D461446044F15F8011B3046B84784
:10227000013CF9D1F8BD7047F921400059B138B59A
:102280000C4605460846044B984702462146284618
:10229000024B984738BD7047814340005D224000A3
:1022A00030B585B004464FF000612420144DA84796
:1022B0004FF000612520A8471420124DA847124A6C
:1022C000D2F8143143F03003C2F8143100230393E1
:1022D0000E4B02938DF80C400D4A14740123536089
:1022E000D3600C4A14745360D3600B4B01931420D9
:1022F000A84701A909480A4B984705B030BD00BF5F
:1023000079254000D527400000800840801A06004B
:1023100004084020B407402080D1F00800C00140EC
:10232000051E400000B583B002AA002302F8013D5B
:10233000064B197018749A6019460548054B984762
:102340009DF8070003B05DF804FB00BF04084020BF
:1023500000C00140391E400010B582B002AC04F844
:10236000012D054B197018749C6019460348044BE5
:10237000984702B010BD00BFB407402000C0014024
:10238000ED1E400010B51048104B98473E2100202C
:102390000F4B98470F4CA0470028FCD00E4B984796
:1023A0000E4A0F4B9A620F4CA0470028FCD0022027
:1023B0000D4B984700200D4B98470D4B984702480E
:1023C000024B984710BD00BF00A3E111BD2B400098
:1023D00051274000A5274000B5274000013F1820A5
:1023E00000060E40C5274000AD264000E92640000B
:1023F000AD2A40002DE9F041044688460E4B98472F
:10240000054620460D4B9847054013D00C4C04F16F
:1024100060062368434508D16168294205D0E36816
:1024200040469847636825EA0305B44202D0103459
:10243000002DEED1BDE8F0817125400075254000EA
:102440001808402008B50A210148024B984708BDEA
:10245000000E0E40F523400008B50B210148024B49
:10246000984708BD00100E40F523400008B5102124
:102470000148024B984708BD00140E40F523400068
:102480004264B1F1C05F2FD007D8B1F1006F14D012
:10249000B1F1805F1ED039B97047B1F1205F36D0FD
:1024A00004D8B1F1005F29D042607047B1F1405FBC
:1024B0002DD0B1F1605F2AD0F6E710B4046F016F40
:1024C000D343214019400167446F416F21400B40C5
:1024D00043671AE0036F13430367416F436F0B4079
:1024E00023EA02034367DFE7016F036F0B4023EA30
:1024F00002030367436F13434367D5E7036F134337
:102500000367436F13434367CEE7426010BC7047D5
:10251000416412F0010F01D0416600E0016612F043
:102520000A0F01D0016200E0416212F0020F02D0F6
:10253000C0F8801004E012F0080F01D0C0F8841039
:1025400041610160704700BF10B44164019C0CB14F
:10255000416600E001660BB1016500E041650AB12A
:10256000016300E041630161016010BC704700BF7E
:10257000C06C7047806C704770B582B00D46474C98
:1025800004EB5014640201F0F043B3F1005F4DD04E
:1025900009D8B3F1805F23D0B3F1C05F33D0B3F17A
:1025A000006F77D109E0B3F1405F5DD0B3F1605FB8
:1025B0005AD0B3F1205F4CD06CE000F01F00012630
:1025C000864032464FF000612046354B984715F063
:1025D000010F02D0666601205DE0266601205AE008
:1025E00000F01F000126864032464FF08051204601
:1025F0002B4B984715F0010F02D0666601204AE088
:102600002666012047E000F01F0001268640324682
:102610004FF0C0512046224B984715F0010F02D0D1
:102620006666012037E02666012034E000F01F00D6
:102630000126864032464FF000512046184B9847FD
:1026400015F0010F02D06666012024E02666012005
:1026500021E000F01F0101262A4606FA01F120467A
:10266000104B9847304616E005F0605200F01F010D
:10267000012605EA06030093C5F38003B2F1605F0B
:1026800014BF0022012206FA01F12046064CA047A1
:10269000304600E0002002B070BD00BF07072000F8
:1026A000812440001125400049254000032807D01F
:1026B000042808D002280CBF4FF48072002204E0E6
:1026C0004FF4407201E04FF4007206490B6B23F4A3
:1026D000407313430B630A46936E13F0080FFBD04D
:1026E000704700BF00060E40184A136B23F07003BA
:1026F00018431063936E13F0080F03D009E0013BF9
:1027000003D11EE04FF4805310498A6E12F0080F77
:10271000F5D00E4A136B23F0030343F00203136357
:10272000906E10F0080004D000207047013B03D1E8
:1027300009E04FF4805305498A6E12F0080FF5D076
:102740007047012070470120704700BF00060E400F
:1027500038B10E490B6A0E4A1A400E4B13430B62F6
:1027600070470A48036A090289B20B4A1A400B4BA8
:102770001343194301620246936E13F0010FFBD01D
:10278000024A116A064B0B431362704700060E4063
:10279000FCFFC8FE02003701FCFFC8FF0100370044
:1027A00000003701024B986E00F48030704700BF84
:1027B00000060E404FF00052014B9A62704700BF76
:1027C00000060E40024B986E00F00200704700BFFA
:1027D00000060E403F281ED81F280CD8114B9A69BE
:1027E00001238340934318D0012303FA00F00D4BDB
:1027F00018610020704720380A4BD3F808210123C4
:10280000834093430BD0012303FA00F0054BC3F838
:102810000001002070470120704700207047002011
:10282000704700BF00060E40F0B48CB007460E465D
:1028300001AC114D0FCD0FC40FCD0FC495E80700AB
:1028400084E8070001AA002052F8043BB6FBF3F32A
:10285000B3FBF7F3B3F5807F05D901300B28F3D133
:102860004FF6FF7005E00A2894BF43EA00204FF6B8
:10287000FF700CB0F0BC7047B845400070B506461C
:102880000C46086840B189680E4B984705464FF6DC
:10289000FF73984201D10EE00025606840B1A16845
:1028A000084B98474FF6FF73984207D045EA00451A
:1028B0003560002070BD4FF6FF7070BD4FF6FF70A1
:1028C00070BD00BF2928400070B40B684A6802F050
:1028D0000F028C8A22430C8922438C7A42EA4422DA
:1028E0008C7D42EA0442CC7D42EA44420C7E42EABC
:1028F000844200EB4314C4F80022CA68C4F80422DE
:102900000A69C4F80C228A7D3AB18C8B4A8B42EA60
:10291000044200EB4314C4F81822846C4FF00112F7
:102920009A40D24304EA0205CC7F04FA03F68C7F76
:102930009C4044EA06442C438464446C224091F851
:10294000214004FA03F591F820409C4044EA0544F4
:102950002243426401229A4091F822401CB1046A49
:102960001443046203E0046A24EA0204046291F856
:102970002440022C05D1D0F8C0401443C0F8C04018
:102980000DE0D0F8C040D5432C40C0F8C04091F8CD
:102990002440012C846E0CBF14432C40846691F8B3
:1029A0002540022C06D1D0F8C04044EA0242C0F8CB
:1029B000C02011E0D0F8C0401204D5432C40C0F82C
:1029C000C04091F82540012C03D1846E22438266D9
:1029D00002E0826E2A408266DB00C56EFF229A40CA
:1029E00025EA020491F823209A402243C26653B993
:1029F00091F82C20012A8A6A22F07F4208BF42F017
:102A00008072C0F8A02000EB4310D0F8003223F40D
:102A10000023C0F80032D0F800228B6B03F40023AF
:102A20001343C0F80032002070BC7047012303FA42
:102A300001F14160704700BF012303FA01F1816099
:102A4000704700BF10B4AC2303600B684A68B3FB47
:102A5000F2F31B095C1E4FF6FE72944206D8036225
:102A60008B68436050230360002000E0012010BC0D
:102A7000704700BF81607047406900F001007047F7
:102A8000436913F0020F02D0C1610020704701209A
:102A9000704700BF436913F0010F03D083690B70C7
:102AA0000020704701207047704700BF3C4B1B6BF4
:102AB00003F00303012B0FD013B1022B29D057E0F1
:102AC000384B5B6913F0800F14BF4FF400424FF492
:102AD000FA42354B1A604BE0314B1B6A13F0807F92
:102AE00003D0324A304B1A6042E0314A2E4B1A6012
:102AF0002B4B1B6A03F07003102B02D0202B04D049
:102B000036E02C4A284B1A6032E0284A264B1A60DD
:102B10002EE0234B1B6A13F0807F03D0234A224B05
:102B20001A6012E0224A204B1A601D4B1B6A03F008
:102B30007003102B02D0202B04D006E01D4A1A4B44
:102B40001A6002E0194A184B1A60154B1B6B03F010
:102B50000303022B0CD1124A936A926A1248C3F300
:102B60000A41036801FB0333D2B2B3FBF2F3036003
:102B70000B4B1B6B03F07003702B07D10A4A1368D1
:102B80000D49A1FB03135B0813607047044B1B6BDB
:102B90000549C3F302120B68D3400B60704700BFB6
:102BA00000060E4010180E4000004020001BB70029
:102BB00000093D0000127A00ABAAAAAA124B984263
:102BC00004D84FF08062114B1A607047104B984246
:102BD00003D8104A0D4B1A6070470F4B984203D828
:102BE0000E4A0A4B1A6070470D4B984203D80D4AA3
:102BF000064B1A6070470C4B984294BF4FF004226A
:102C00000A4A024B1A607047FF2C3101000C0E403B
:102C1000FF59620200010004FF86930300020004D2
:102C2000FFB3C40400030004FFE0F5050005000441
:102C30002DE9F84FC04B21F000469E420D468A46D2
:102C400004460FDDBD4B9E4200F3B28000F0AD8024
:102C5000BB4BBC49BC4CBAF1000FC8BF194620465B
:102C6000BDE8F88FB94B9E4200F3BC80A3F1DE7340
:102C70009E4240F3A7804FF0FF3B22462B46204662
:102C8000294600F019FD02460B468046894600F0B1
:102C900013FD91A3D3E9002306460F4600F00CFD77
:102CA0008FA3D3E9002300F055FB32463B4600F0EA
:102CB00003FD8DA3D3E9002300F04CFB32463B46D5
:102CC00000F0FAFC8AA3D3E9002300F043FB32466C
:102CD0003B4600F0F1FC88A3D3E9002300F03AFB67
:102CE00032463B4600F0E8FC85A3D3E9002300F020
:102CF00031FB42464B4600F0DFFC83A3D3E90023BF
:102D0000804689463046394600F0D6FC80A3D3E998
:102D1000002300F01DFB32463B4600F0CDFC7EA3B5
:102D2000D3E9002300F014FB32463B4600F0C4FC1C
:102D30007BA3D3E9002300F00BFB32463B4600F0B7
:102D4000BBFC79A3D3E9002300F002FB32463B46EB
:102D500000F0B2FCBBF1FF3F02460B4669D0404693
:102D6000494600F0F7FA22462B4600F0A5FC784EC3
:102D7000784B4FEACB0B5E449B44DBE9002300F029
:102D8000E7FA22462B4600F0E3FA02460B46D6E964
:102D9000000100F0DDFABAF1000F0446BFF65FAFA4
:102DA00001F100412046BDE8F88F00283FF450AF04
:102DB000224620462B46294600F0CCFA04462046FF
:102DC000BDE8F88F5AA3D3E9002300F0C3FA00222C
:102DD000614B00F001FF00283FF44DAF294620462B
:102DE000BDE8F88F00F0C2F85C4B9E4204460D46E9
:102DF0002FDCA3F550239E4254DC02460B4600F024
:102E0000A9FA0022544B00F0A3FA002206460F460E
:102E10004FF080432046294600F09CFA02460B46BC
:102E20003046394600F072FD4FF0000B04460D4667
:102E300023E74046494600F08DFA22462B4600F033
:102E40003BFC02460B462046294600F081FA044628
:102E500005E7434B9E421ADC0022424B00F078FA11
:102E6000002206460F463F4B2046294600F024FC30
:102E70000022394B00F06EFA02460B4630463946C6
:102E800000F044FD4FF0020B04460D46F5E6024605
:102E90000B460020344900F039FD4FF0030B044687
:102EA0000D46EAE600222C4B00F052FA00220646BC
:102EB0000F46294B2046294600F04CFA02460B46A5
:102EC0003046394600F022FD4FF0010B04460D4616
:102ED000D3E600BFAFF3008011DA22E33AAD903FB2
:102EE000EB0D76244B7BA93F513DD0A0660DB13F41
:102EF0006E204CC5CD45B73FFF8300922449C23FA9
:102F00000D5555555555D53F2F6C6A2C44B4A2BF6D
:102F10009AFDDE522DDEAD3F6D9A74AFF2B0B33F35
:102F2000711623FEC671BC3FC4EB98999999C93FAD
:102F30009C7500883CE4377EFFFF0F440000F07F63
:102F4000FB21F93FFB21F9BF182D4454FFFFDB3F64
:102F500008464000E84540000000F03FFFFFF23F18
:102F6000FF7F03400000F83F0000F0BF21F0004168
:102F7000704700BF00F05CB82DE9F04F8BB00446FD
:102F80000D4600F01FF9284B93F900A0BAF1FF3F5E
:102F900006460F4612D022462B462046294600F010
:102FA00025FE834650B94FF000084FF00009424615
:102FB0004B462046294600F0F1FD20B930463946FF
:102FC0000BB0BDE8F08F194BCDF820B00122CDE950
:102FD0000445CDE902458DE80C00BAF1000F15D08B
:102FE00042464B464046494600F090FCBAF1020F7B
:102FF000CDE906010CD101F005F921230360089BFE
:1030000063B9DDE906010BB0BDE8F08FCDE90689B3
:10301000684600F097F90028F1D1ECE701F0F2F8EA
:10302000089B0360EDE700BF0400402028464000F5
:103030002DE9F84F5442144323F00049DFF880E1B2
:1030400049EAD474744506460D463ED844420443CA
:1030500021F0004B4BEAD47474458A4635D803F10D
:10306000404404F58014144344D09C1704F0020437
:1030700044EAD17450EA0B012FD052EA090133D04F
:10308000F14546D0F3452FD0C9EB0B094FEA29593A
:10309000B9F13C0F34DC002B57DB3046294600F0F9
:1030A00035FCFFF763FFFFF7C3FD012C4AD0022C6C
:1030B0003BD084B132A3D3E9002300F049F932A315
:1030C000D3E9002300F044F905E0104619463246E2
:1030D0002B4600F03FF9BDE8F88F022C14D0032CEA
:1030E0000CD12D482D49F6E7BAF1000F2A480EDB26
:1030F0002B49F0E7BDE8F84FFFF79ABD2946EAE70C
:1031000023A1D1E90001D0E723482649E3E7264976
:10311000E1E7CB451FD0022CF6D0032CE1D0012CE7
:103120004FF0000020D00146D5E715A3D3E90023D6
:1031300000F00EF902460B4613A1D1E9000100F0A0
:1031400007F9C8E701F10041C5E719F13C0FA4DA1E
:1031500000200021A9E7022C0ED0032C09D0012C5D
:103160000D4804D01149B6E74FF00041B3E71049CC
:10317000B1E710481049AEE70E481049ABE700BF71
:10318000075C143326A6A13C182D4454FB210940AA
:10319000182D4454FB21F93F182D4454FB2109C03C
:1031A000FB21F93FFB210940FB21F9BFFB21E93F4E
:1031B000FB21E9BFD221337F7CD902C07CD90240F8
:1031C0000000F07F2DE9F8435D4EB6460E4076458F
:1031D0000C46054600F0958000290B46024673DD3B
:1031E0000F157ED0A7F2FF37C3F31303F80743F49C
:1031F000801364D403EBD27100260B447F1052007D
:10320000B64616204FF400110EEB01049C424FEA23
:10321000D2754FEA420203DC1B1B04EB010E0E4485
:10322000013805EB43034FEA5101EDD184462024D8
:103230004FF0004109E020D003EBD275013C4FEA8A
:1032400051012B444FEA420220D09E4501EB0C0570
:10325000F1DA002D05EB010C09DBF0469542CEEBCF
:10326000030300D9013B521B0844C646E4E7BCF106
:10327000000FF2DB0EF10108F0E7954217D8002DA0
:1032800005EB010C47DB98460023ECE7134310D114
:103290004008731003F17F5303F50013F20703EBAB
:1032A000075948BF40F000404946BDE8F8837346DF
:1032B000C2E7411C33D000F001031844E8E75B008B
:1032C00003EBD273520095E721F000460643ECD0A1
:1032D00069BB0F46D30A153F5205002BFAD0DD0219
:1032E00020D4002100E001465B00DC0201F1010076
:1032F000F9D5C0F1200422FA04F423437F1A824056
:1033000070E702460B4600F0D7F92A46234600F044
:1033100021F8BDE8F883BCF1000FABDAB3E7013662
:103320002046B6E720244FF0FF310020E3E70246B5
:103330000B4600F00DF802460B4600F0E7FAB4E742
:103340000000F07F0020704781F0004102E000BFE4
:1033500083F0004330B54FEA41044FEA430594EA55
:10336000050F08BF90EA020F1FBF54EA000C55EA90
:10337000020C7FEA645C7FEA655C00F0E2804FEA61
:103380005454D4EB5555B8BF6D420CDD2C4480EA43
:10339000020281EA030382EA000083EA010180EA73
:1033A000020281EA0303362D88BF30BD11F0004FC1
:1033B0004FEA01314FF4801C4CEA113102D04042F7
:1033C00061EB410113F0004F4FEA03334CEA133332
:1033D00002D0524263EB430394EA050F00F0A7804A
:1033E000A4F10104D5F1200E0DDB02FA0EFC22FA45
:1033F00005F2801841F1000103FA0EF2801843FA39
:1034000005F359410EE0A5F120050EF1200E012A29
:1034100003FA0EFC28BF4CF0020C43FA05F3C01867
:1034200051EBE37101F0004507D54FF0000EDCF1E0
:10343000000C7EEB00006EEB0101B1F5801F1BD389
:10344000B1F5001F0CD349085FEA30004FEA3C0C8D
:1034500004F101044FEA445212F5800F80F09A8083
:10346000BCF1004F08BF5FEA500C50F1000041EB87
:10347000045141EA050130BD5FEA4C0C404141EB8B
:10348000010111F4801FA4F10104E9D191F0000FB2
:1034900004BF01460020B1FA81F308BF2033A3F135
:1034A0000B03B3F120020CDA0C3208DD02F1140C2C
:1034B000C2F10C0201FA0CF021FA02F10CE002F167
:1034C0001402D8BFC2F1200C01FA02F120FA0CFC60
:1034D000DCBF41EA0C019040E41AA2BF01EB0451A9
:1034E000294330BD6FEA04041F3C1CDA0C340EDCA7
:1034F00004F11404C4F1200220FA04F001FA02F3EA
:1035000040EA030021FA04F345EA030130BDC4F1A7
:103510000C04C4F1200220FA02F001FA04F340EA9C
:103520000300294630BD21FA04F0294630BD94F04D
:10353000000F83F4801306BF81F480110134013D34
:103540004EE77FEA645C18BF7FEA655C29D094EAA5
:10355000050F08BF90EA020F05D054EA000C04BF23
:103560001946104630BD91EA030F1EBF002100200E
:1035700030BD5FEA545C05D14000494128BF41F0AD
:10358000004130BD14F580043CBF01F5801130BD11
:1035900001F0004545F0FE4141F470014FF000009C
:1035A00030BD7FEA645C1ABF194610467FEA655C4D
:1035B0001CBF0B46024650EA013406BF52EA0335EF
:1035C00091EA030F41F4002130BD00BF90F0000FDD
:1035D00004BF0021704730B54FF4806404F1320419
:1035E0004FF000054FF0000150E700BF90F0000FD2
:1035F00004BF0021704730B54FF4806404F13204F9
:1036000010F0004548BF40424FF000013EE700BFC8
:1036100042004FEAE2014FEA31014FEA02701FBF58
:1036200012F07F4393F07F4F81F06051704792F02A
:10363000000F14BF93F07F4F704730B54FF46074A4
:1036400001F0004521F0004120E700BF50EA0102EF
:1036500008BF704730B54FF000050AE050EA01029C
:1036600008BF704730B511F0004502D5404261EB0C
:1036700041014FF4806404F132045FEA915C3FF44D
:10368000DCAE4FF003025FEADC0C18BF03325FEAE6
:10369000DC0C18BF033202EBDC02C2F1200300FA9B
:1036A00003FC20FA02F001FA03FE40EA0E0021FAC0
:1036B00002F11444C1E600BF70B54FF0FF0C4CF4AA
:1036C000E06C1CEA11541DBF1CEA135594EA0C0F60
:1036D00095EA0C0F00F0DEF82C4481EA030621EA9B
:1036E0004C5123EA4C5350EA013518BF52EA0335D6
:1036F00041F4801143F4801338D0A0FB02CE4FF088
:103700000005E1FB02E506F00042E0FB03E54FF0B7
:103710000006E1FB03569CF0000F18BF4EF0010EAF
:10372000A4F1FF04B6F5007F64F5407404D25FEAAB
:103730004E0E6D4146EB060642EAC62141EA55515E
:103740004FEAC52040EA5E504FEACE2EB4F1FD0CA0
:1037500088BFBCF5E06F1ED8BEF1004F08BF5FEA1E
:10376000500E50F1000041EB045170BD06F00046D0
:1037700046EA010140EA020081EA0301B4EB5C047D
:10378000C2BFD4EB0C0541EA045170BD41F4801175
:103790004FF0000E013C00F3AB8014F1360FDEBF9A
:1037A000002001F0004170BDC4F10004203C35DA76
:1037B0000C341BDC04F11404C4F1200500FA05F3F9
:1037C00020FA04F001FA05F240EA020001F000429A
:1037D00021F0004110EBD37021FA04F642EB060110
:1037E0005EEA430E08BF20EAD37070BDC4F10C043A
:1037F000C4F1200500FA04F320FA05F001FA04F2FE
:1038000040EA020001F0004110EBD37041F10001E9
:103810005EEA430E08BF20EAD37070BDC4F12005F4
:1038200000FA05F24EEA020E20FA04F301FA05F25C
:1038300043EA020321FA04F001F0004121FA04F204
:1038400020EA020000EBD3705EEA430E08BF20EAD4
:10385000D37070BD94F0000F0FD101F0004640000E
:1038600041EB010111F4801F08BF013CF7D041EA90
:10387000060195F0000F18BF704703F00046520094
:1038800043EB030313F4801F08BF013DF7D043EA65
:103890000603704794EA0C0F0CEA135518BF95EA1B
:1038A0000C0F0CD050EA410618BF52EA4306D1D1A2
:1038B00081EA030101F000414FF0000070BD50EAC1
:1038C000410606BF1046194652EA430619D094EA4B
:1038D0000C0F02D150EA013613D195EA0C0F05D135
:1038E00052EA03361CBF104619460AD181EA030189
:1038F00001F0004141F0FE4141F470014FF0000041
:1039000070BD41F0FE4141F4780170BD70B54FF0DB
:10391000FF0C4CF4E06C1CEA11541DBF1CEA13555B
:1039200094EA0C0F95EA0C0F00F0A7F8A4EB05043D
:1039300081EA030E52EA03354FEA013100F0888034
:103940004FEA03334FF0805545EA131343EA1263FD
:103950004FEA022245EA111545EA10654FEA0026B2
:103960000EF000419D4208BF964244F1FD0404F56B
:10397000407402D25B084FEA3202B61A65EB0305C7
:103980005B084FEA32024FF480104FF4002CB6EB84
:10399000020E75EB030E22BFB61A754640EA0C0004
:1039A0005B084FEA3202B6EB020E75EB030E22BF44
:1039B000B61A754640EA5C005B084FEA3202B6EB85
:1039C000020E75EB030E22BFB61A754640EA9C0044
:1039D0005B084FEA3202B6EB020E75EB030E22BF14
:1039E000B61A754640EADC0055EA060E18D04FEAD2
:1039F000051545EA16754FEA06164FEAC30343EA72
:103A000052734FEAC2025FEA1C1CC0D111F4801F3E
:103A10000BD141EA00014FF000004FF0004CB6E737
:103A200011F4801F04BF01430020B4F1FD0C88BFD6
:103A3000BCF5E06F3FF6AFAEB5EB030C04BFB6EBE1
:103A4000020C5FEA500C50F1000041EB045170BDD4
:103A50000EF0004E4EEA113114EB5C04C2BFD4EB01
:103A60000C0541EA045170BD41F480114FF0000E85
:103A7000013C90E645EA060E8DE60CEA135594EA01
:103A80000C0F08BF95EA0C0F3FF43BAF94EA0C0F04
:103A90000AD150EA01347FF434AF95EA0C0F7FF479
:103AA00025AF104619462CE795EA0C0F06D152EACD
:103AB00003353FF4FDAE1046194622E750EA4106B1
:103AC00018BF52EA43067FF4C5AE50EA41047FF4C2
:103AD0000DAF52EA43057FF4EBAE12E74FF0FF3C27
:103AE00006E000BF4FF0010C02E000BF4FF0010CF8
:103AF0004DF804CD4FEA410C7FEA6C5C4FEA430C71
:103B000018BF7FEA6C5C1BD001B050EA410C0CBFBF
:103B100052EA430C91EA030F02BF90EA020F002021
:103B2000704710F1000F91EA030F58BF994208BF88
:103B300090422CBFD8176FEAE37040F00100704745
:103B40004FEA410C7FEA6C5C02D150EA013C07D19C
:103B50004FEA430C7FEA6C5CD6D152EA033CD3D0E7
:103B60005DF8040B704700BF8446104662468C46E1
:103B70001946634600E000BF01B5FFF7B7FF002814
:103B800048BF10F1000F01BD4DF808EDFFF7F4FF3D
:103B90000CBF012000205DF808FB00BF4DF808EDC8
:103BA000FFF7EAFF34BF012000205DF808FB00BFEB
:103BB0004DF808EDFFF7E0FF94BF012000205DF80D
:103BC00008FB00BF4DF808EDFFF7CEFF94BF0120C2
:103BD00000205DF808FB00BF4DF808EDFFF7C4FFBB
:103BE00034BF012000205DF808FB00BF4FEA410C04
:103BF0007FEA6C5C02D150EA013C0AD14FEA430CE7
:103C00007FEA6C5C02D152EA033C02D14FF0000023
:103C100070474FF0010070474FEA410212F5001261
:103C200015D211D56FF47873B3EB625212D94FEA03
:103C3000C12343F0004343EA505311F0004F23FAED
:103C400002F018BF404270474FF00000704750EA42
:103C5000013005D111F0004008BF6FF000407047FF
:103C60004FF00000704700BF4A0011D212F5001259
:103C700011D20DD56FF47873B3EB62520ED44FEAC4
:103C8000C12343F0004343EA505323FA02F0704744
:103C90004FF00000704750EA013002D14FF0FF3082
:103CA00070474FF0000070474FEA4102B2F1E04325
:103CB00024BFB3F5001CDCF1FE5C0DD901F0004C13
:103CC0004FEAC0024CEA5070B2F1004F40EB830063
:103CD00008BF20F00100704711F0804F21D113F18F
:103CE0003872BCBF01F00040704741F480114FEAC8
:103CF0005252C2F11802C2F1200C10FA0CF320FA51
:103D000002F018BF40F001004FEAC1234FEAD3236D
:103D100003FA0CFC40EA0C0023FA02F34FEA4303D7
:103D2000CCE77FEA625307D150EA01331EBF4FF060
:103D3000FE4040F44000704701F0004040F0FE407B
:103D400040F40000704700BF80F0004002E000BF78
:103D500081F0004142001FBF5FEA410392EA030F76
:103D60007FEA226C7FEA236C6AD04FEA1262D2EBC0
:103D70001363C1BFD218414048404140B8BF5B42C5
:103D8000192B88BF704710F0004F40F4000020F05E
:103D90007F4018BF404211F0004F41F4000121F074
:103DA0007F4118BF494292EA030F3FD0A2F10102BE
:103DB00041FA03FC10EB0C00C3F1200301FA03F1FC
:103DC00000F0004302D5494260EB4000B0F5000F1F
:103DD00013D3B0F1807F06D340084FEA310102F1DE
:103DE0000102FE2A51D2B1F1004F40EBC25008BF90
:103DF00020F0010040EA03007047490040EB00005A
:103E000010F4000FA2F10102EDD1B0FA80FCACF188
:103E1000080CB2EB0C0200FA0CF0AABF00EBC25087
:103E200052421843BCBFD0401843704792F0000F75
:103E300081F4000106BF80F400000132013BB5E7C8
:103E40004FEA41037FEA226C18BF7FEA236C21D03E
:103E500092EA030F04D092F0000F08BF08467047A3
:103E600090EA010F1CBF0020704712F07F4F04D171
:103E7000400028BF40F00040704712F100723CBF84
:103E800000F50000704700F0004343F0FE4040F4AE
:103E9000000070477FEA226216BF08467FEA23636C
:103EA0000146420206BF5FEA412390EA010F40F457
:103EB000800070474FF0000304E000BF10F00043A3
:103EC00048BF40425FEA000C08BF704743F096438A
:103ED00001464FF000001CE050EA010208BF7047A5
:103EE0004FF000030AE000BF50EA010208BF70472C
:103EF00011F0004302D5404261EB41015FEA010C41
:103F000002BF84460146002043F0B64308BFA3F138
:103F10008053A3F50003BCFA8CF2083AA3EBC2531A
:103F200010DB01FA02FC634400FA02FCC2F1200239
:103F3000BCF1004F20FA02F243EB020008BF20F070
:103F40000100704702F1200201FA02FCC2F12002D6
:103F500050EA4C0021FA02F243EB020008BF20EACB
:103F6000DC7070474FF0FF0C1CEAD0521EBF1CEAF9
:103F7000D15392EA0C0F93EA0C0F6FD01A4480EAE7
:103F8000010C400218BF5FEA41211ED04FF00063D0
:103F900043EA501043EA5111A0FB01310CF00040FC
:103FA000B1F5000F3EBF490041EAD3715B0040EA22
:103FB000010062F17F02FD2A1DD8B3F1004F40EBF2
:103FC000C25008BF20F00100704790F0000F0CF0C5
:103FD000004C08BF49024CEA502040EA51207F3A89
:103FE000C2BFD2F1FF0340EAC250704740F4000064
:103FF0004FF00003013A5DDC12F1190FDCBF00F055
:1040000000407047C2F10002410021FA02F1C2F102
:10401000200200FA02FC5FEA310040F1000053EA9E
:104020004C0308BF20EADC70704792F0000F00F0EC
:10403000004C02BF400010F4000F013AF9D040EAF2
:104040000C0093F0000F01F0004C02BF490011F486
:10405000000F013BF9D041EA0C018FE70CEAD15384
:1040600092EA0C0F18BF93EA0C0F0AD030F0004C04
:1040700018BF31F0004CD8D180EA010000F00040B8
:10408000704790F0000F17BF90F0004F084691F076
:10409000000F91F0004F14D092EA0C0F01D14202B0
:1040A0000FD193EA0C0F03D14B0218BF084608D179
:1040B00080EA010000F0004040F0FE4040F40000C3
:1040C000704740F0FE4040F4400070474FF0FF0C56
:1040D0001CEAD0521EBF1CEAD15392EA0C0F93EA9D
:1040E0000C0F69D0A2EB030280EA010C49024FEAEF
:1040F000402037D04FF0805343EA111143EA1013A8
:104100000CF000408B4238BF5B0042F17D024FF45F
:10411000000C8B4224BF5B1A40EA0C00B3EB510F3A
:1041200024BFA3EB510340EA5C00B3EB910F24BF23
:10413000A3EB910340EA9C00B3EBD10F24BFA3EBA8
:10414000D10340EADC001B0118BF5FEA1C1CE0D170
:10415000FD2A3FF650AF8B4240EBC25008BF20F023
:10416000010070470CF0004C4CEA50207F32C2BF77
:10417000D2F1FF0340EAC250704740F400004FF014
:104180000003013A37E792F0000F00F0004C02BF45
:10419000400010F4000F013AF9D040EA0C0093F00F
:1041A000000F01F0004C02BF490011F4000F013B69
:1041B000F9D041EA0C0195E70CEAD15392EA0C0FD1
:1041C00008D142027FF47DAF93EA0C0F7FF470AF09
:1041D000084676E793EA0C0F04D14B023FF44CAF4C
:1041E00008466EE730F0004C18BF31F0004CCAD1E1
:1041F00030F000427FF45CAF31F000437FF43CAF1D
:104200005FE700BF014B1868704700BF30044020D3
:1042100070B50F4E0F4D761BB61018BF002405D099
:10422000013455F8043B9847A642F9D10A4E0B4D8C
:10423000761B00F083FAB61018BF002406D00134B4
:1042400055F8043B9847A642F9D170BD70BD00BF38
:104250004847400048474000544740004847400016
:10426000034B1B681844407800F00800704700BFFB
:1042700034044020830710B5044610D10268A2F12F
:10428000013323EA020313F0803F08D150F8042FD2
:10429000A2F1013323EA020313F0803FF6D0037842
:1042A0001BB110F8013F002BFBD100F003F82046B2
:1042B00010BD00BF80EA0102844612F0030F4FD107
:1042C00011F0030F32D14DF8044D11F0040F51F8E5
:1042D000043B0BD0A3F101329A4312F0803F04BF9C
:1042E0004CF8043B51F8043B16D100BF51F8044B85
:1042F000A3F101329A4312F0803FA4F101320BD1B5
:104300004CF8043BA24312F0803F04BF51F8043B39
:104310004CF8044BEAD023460CF8013B13F0FF0F96
:104320004FEA3323F8D15DF8044B704711F0010FC9
:1043300006D011F8012B0CF8012B002A08BF70479A
:1043400011F0020FBFD031F8022B12F0FF0F16BF91
:104350002CF8022B8CF8002012F47F4FB3D1704759
:1043600011F8012B0CF8012B002AF9D1704700BF7E
:10437000000000000000000000000000000000003D
:1043800090F800F06DE9024520F007016FF0000C95
:1043900010F0070491F820F040F049804FF000043D
:1043A0006FF00700D1E9002391F840F000F1080018
:1043B00082FA4CF2A4FA8CF283FA4CF3A2FA8CF350
:1043C0004BBBD1E9022382FA4CF200F10800A4FAB7
:1043D0008CF283FA4CF3A2FA8CF3E3B9D1E904230B
:1043E00082FA4CF200F10800A4FA8CF283FA4CF342
:1043F000A2FA8CF37BB9D1E9062301F1200182FAFC
:104400004CF200F10800A4FA8CF283FA4CF3A2FA01
:104410008CF3002BC6D0002A04BF04301A4612BA0F
:10442000B2FA82F2FDE8024500EBD2007047D1E912
:10443000002304F00305C4F100004FEAC50514F0A1
:10444000040F91F840F00CFA05F562EA05021CBF72
:1044500063EA050362464FF00004A9E7024B13B17B
:10446000024800F005B87047000000007D4440009D
:10447000002301461A46184600F014B838B5074D17
:10448000074C2C1BA41005D0013C55F8043D98475F
:10449000002CF9D1BDE8384000F05CB96447400019
:1044A000604740002DE9F047254C2568D5F8484184
:1044B0000646884692469946C4B360681F2817DCB2
:1044C000431C76B104EB80050122C5F888A0D4F81E
:1044D000881182401143022EC4F88811C5F8089152
:1044E0001ED00230636044F820800020BDE8F087D1
:1044F000144B03B34FF4C870AFF300800446D0B13F
:10450000D5F84831002780E88800C5F8484138468A
:104510000123C4F88871C4F88C71002EE1D0D1E772
:10452000D4F88C110A43C4F88C21DAE705F5A67497
:10453000C5F84841C1E74FF0FF30BDE8F08700BF44
:1045400034464000000000002D2D2D2D2D2D2D2D49
:104550002D2D2D2D2D2D2D2D2D0000000A000000BC
:10456000657374696D416E676C65583A00000000B0
:104570006F7666002E000000657374696D416E678A
:104580006C65593A000000006572726F7220696EA6
:104590006974204932433A00496E697420493243B4
:1045A000204F4B00496E69742064726F6E694174CC
:1045B00074204F4B000000000100000002000000CA
:1045C00004000000080000001000000020000000AF
:1045D0004000000080000000000100000002000018
:1045E0000004000000000000E2652F227F2B7A3CCF
:1045F000075C143326A6813CBDCBF07A8807703C5B
:10460000075C143326A6913C4FBB610567ACDD3FC8
:10461000182D4454FB21E93F9BF681D20B73EF3FE9
:10462000182D4454FB21F93F73717274000000008F
:1046300043000000080040200020202020202020EF
:104640002020282828282820202020202020202042
:104650002020202020202020208810101010101052
:10466000101010101010101010040404040404049E
:104670000404041010101010101041414141414138
:10468000010101010101010101010101010101011A
:10469000010101011010101010104242424242422A
:1046A00002020202020202020202020202020202EA
:1046B0000202020210101010200000000000000092
:1046C00000000000000000000000000000000000EA
:1046D00000000000000000000000000000000000DA
:1046E00000000000000000000000000000000000CA
:1046F00000000000000000000000000000000000BA
:1047000000000000000000000000000000000000A9
:104710000000000000000000000000000000000099
:104720000000000000000000000000000000000089
:10473000000000000000000000000000F8B500BF0D
:10474000F8BC08BC9E4670475D44400065014000CF
:10475000011A4000F8B500BFF8BC08BC9E4670477F
:0447600041014000D3
:1047640000093D000100000000000000F4024020A8
:104774005C034020C403402000000000000000004F
:104784000000000000000000000000000000000025
:10479400000000000000000000000000304640005F
:1047A4000000000000000000000000000000000005
:1047B40000000000000000000000000000000000F5
:1047C40000000000000000000000000000000000E5
:1047D40000000000000000000000000000000000D5
:1047E40000000000000000000000000000000000C5
:1047F40000000000000000000000000000000000B5
:1048040000000000000000000000000000000000A4
:1048140001000000000000000E33CDAB34126DE641
:10482400ECDE05000B0000000000000000000000AA
:104834000000000000000000000000000000000074
:104844000000000000000000000000000000000064
:104854000000000000000000000000000000000054
:104864000000000000000000000000000000000044
:084B94000800402038464000F3
:0400000500400000B7
:00000001FF
